:020000040800F2
:10000000D00A0020D5020008E521000809210008D7
:1000100095210008A51D0008833600080000000097
:10002000000000000000000000000000592400084B
:10003000F91E000800000000ED220008F12B000866
:10004000EF020008EF020008EF020008EF020008CC
:10005000EF020008EF020008EF020008EF020008BC
:10006000EF020008EF020008EF020008EF020008AC
:10007000EF020008EF020008EF020008EF0200089C
:10008000EF020008EF020008EF020008EF0200088C
:10009000EF020008EF020008EF020008EF0200087C
:1000A000EF020008EF020008EF020008EF0200086C
:1000B0005D2C0008D92D000831310008EF0200083E
:1000C000EF020008EF020008EF020008EF0200084C
:1000D000EF02000835330008BD330008453400083E
:1000E000EF020008EF020008EF020008EF0200082C
:1000F000EF020008EF020008EF020008EF0200081C
:10010000EF020008EF020008EF020008EF0200080B
:10011000EF020008EF020008EF020008EF020008FB
:10012000EF020008EF020008EF020008EF020008EB
:10013000EF020008EF020008EF020008EF020008DB
:10014000EF020008EF020008EF020008EF020008CB
:10015000EF020008EF020008EF020008EF020008BB
:10016000EF020008EF020008EF020008EF020008AB
:10017000EF020008EF020008EF020008EF0200089B
:10018000EF020008EF02000800F002F800F092F819
:100190000AA090E8000C82448344AAF10107DA45E2
:1001A00001D100F087F8AFF2090EBAE80F0013F0A2
:1001B000010F18BFFB1A43F001031847AC570000AA
:1001C000CC570000103A24BF78C878C1FAD852073B
:1001D00024BF30C830C144BF04680C6070470000C1
:1001E0000023002400250026103A28BF78C1FBD840
:1001F000520728BF30C148BF0B6070476E2900F01E
:10020000AB82702900F02586662905F040836529B8
:1002100005F03D83672905F03A836129AFF300803B
:1002200003681B0A28BF41F08001692900F0BC80E7
:10023000642900F0B980752900F0B6806F2900F0BC
:10024000B285782900F0F185E92900F04D85E4298F
:1002500000F04A85F52900F04785EF2900F0AF85C9
:10026000F82900F0F0850368DB0928BF41F0800120
:10027000632900F0BC84732900F0C184E32900F0F5
:10028000CB86F32900F0D086002070471FB505F01B
:10029000F4FA00F02DFE04000020002104F0F4FD2B
:1002A000401C60600020002104F0D8FDE0601FBD0C
:1002B00010B510BD00F0A2FF1146FFF7E7FF03F0F5
:1002C00077FB00F0CEFF03B4FFF7F2FF03BC03F0AF
:1002D000F9F900000948804709480047FEE7FEE7B2
:1002E000FEE7FEE7FEE7FEE7FEE7FEE7FEE7FEE7E6
:1002F00004480549054A064B70470000F52B0008E5
:1003000089010008D0040020D00A0020D006002077
:10031000D0060020704700001CB50C46064B7B44FD
:1003200069460090204600F040FC044600206946E3
:1003300000F04EFC20461CBDAF0800000FB404497D
:1003400010B503AA029800F05FFC10BC5DF814FB26
:100350007000002070B50C460546012A05D02878AB
:10036000800600D5EA69002302E0012305E05B1C5A
:10037000934202D2E05C0028F9D1A869E618C01ABD
:10038000A861286A18442862284600F053F904E05E
:10039000D5E9012114F8010B9047B442F8D328465F
:1003A00000F05EF970BD00002DE9F0410646002422
:1003B00010687529314616A510D000F062F90028A2
:1003C00002DA404213A507E031688A0701D512A579
:1003D00002E0490704D511A5012401E000F05AF913
:1003E00000210A2206F1240709E0B0FBF2FCB0FB71
:1003F000F2F302FB1C00303078541846491C0028E8
:10040000F3D123462A463046BDE8F04100F04BB90F
:10041000000000002D0000002B0000002000000064
:100420002DE9F05F894604464FF0000ADFF874B109
:10043000FB44C0F820A02046E1688847002874D01B
:10044000252806D0D4E901219047206A401C20626B
:10045000F1E700265F462046E168884720280546E8
:1004600007DB312D05D2781910F8200C08B10643AE
:10047000F1E7B00701D526F00406C4F81CA0002758
:10048000C4F818A02A2D09D0284603F014F938B36F
:1004900004EB8708303DC8F8185019E059F8041BE0
:1004A000204604EB87029161E1688847012F0546E9
:1004B00018D1E069002820DA26F020061DE0D8F8DF
:1004C000180000EB800005EB40003038C8F8180039
:1004D0002046E1688847054603F0EDF80028EED194
:1004E000012F0AD02E2D08D12046E16888477F1CB5
:1004F0000546022F46F02006C4DBA069002803DA77
:10050000404246F00106A061F00701D026F0100637
:100510006C2D0BD0682D09D04C2D39D06A2D35D0DB
:10052000742D35D07A2D33D016E038E0E1682F46AF
:1005300020468847B842054609D16C2F26D04FF493
:100540008060E168064320468847054604E06C2F3A
:100550001AD04FF4807006430DB3A5F1410019285D
:1005600002D8203546F400664A46294620462660D1
:100570004E46FFF743FE80B101280BD0F61D26F052
:10058000070000F1080956E74020E4E78020D8E79B
:100590000020D6E706F104094DE7284652E7206A15
:1005A000BDE8F09F5E54000070B5064600F03EF8CE
:1005B0000468054630460A22002100F055FC2C60F4
:1005C00070BD30B505460B462A4613F8014B12F8AC
:1005D000010B08B1A042F8D01CB1002802D06D1C5C
:1005E000F1E7284630BD10B5431C02E010F8011BAE
:1005F00071B18107FAD14FF0013202C88C1A8C43D5
:1006000014EAC211F9D0C01A0A0603D0C01E10BDE8
:10061000C01A10BD0A0401D0801E10BD0902FCD012
:10062000401E10BD704770477047704700487047C4
:100630007004002070B5044685690068C10601D5C4
:10064000302600E02026C00707D070BDD4E9012184
:1006500030469047206A401C20626D1EF6D570BD62
:1006600070B5044685690078C00707D170BDD4E92C
:10067000012120209047206A401C20626D1EF6D583
:1006800070BD09684A0501D540B27047C905FCD55F
:1006900000B2704709684A0501D5C0B27047C90564
:1006A000FCD580B270472DE9F0470D469946924639
:1006B000044600F124080168880604D5E06921F0A9
:1006C0001001216000E00120A84201DD471B00E08D
:1006D0000027A1697A1902EB0900081AA0612078A5
:1006E000C00602D42046FFF7A5FF002608E0D4E9A3
:1006F00001211AF806009047206A401C761C2062EF
:100700004E45F4DB2078C0060AD52046FFF792FF5D
:1007100006E0D4E9012130209047206A401C206285
:10072000381EA7F10107F4DC07E0D4E9012118F82D
:1007300005009047206A401C2062281EA5F1010593
:10074000F3DC2046FFF78CFF2078000602D502205C
:10075000BDE8F0870120FBE711680268006A5305D5
:1007600001D508700AE0D30501D5088006E013061C
:1007700003D5C217C1E9000200E0086001207047FC
:1007800070472DE9FF4F0C461E464FF0FF378BB0E8
:10079000D2E90001DDF860800A908A46C1F30A556B
:1007A00005B93D46002108464FF00000BAF1000FA0
:1007B00000F4400005DA00EB80004FF4400101EA4C
:1007C00050004FEA9059B9F1010F00DDB9460A987F
:1007D00050EA4A000ED044F61050A5F2FF354543CA
:1007E0002F14B8F1000F1ED07542291E1EDDC9F16D
:1007F00000021CE0B8F1010F4FF0000001D03021E1
:1008000003E0F24305E02154401CB042FBDB3046DC
:100810000022002121540B99C1F80880C1E9002071
:100820000FB0BDE8F08FBD1B6D1CDEE74A4600DA55
:10083000694206A800F04CFC06AB93E8070003AB46
:1008400083E8070050460A9900F054FD8DE8070040
:10085000A0F500501F3800900398002D0ADD42F2E9
:100860001F014A460844002303A90390684600F08C
:10087000BDFF09E0A0F500504A461F38002303A938
:100880000390684600F0C7FF8DE807000004000CE5
:1008900003D04FF0FF30410800E01046B8F1000FE0
:1008A00003D00022009215461EE0751E05D400F00C
:1008B00023FB303262556D1EF9D5B3460122084341
:1008C00002D000227F1C04E02078302801D10022D1
:1008D0007F1E002A099784D01DE0112D07DA00F051
:1008E0000BFB303262556D1C50EA0102F5D1084312
:1008F00002D00098C8B10EE00021681E05E0235C1C
:10090000625C63542254401E491C8142F7DBAB46B3
:10091000A81B401E0990002004F80B000B98099AB0
:10092000C0F80880C0E9002B7AE711264FF00008D4
:1009300057E72DE9F04F88460446D21D22F0070103
:1009400091B0D1E90001CDE90A0102F09CFE024616
:100950000B98C00F01D02D2007E02068810701D53A
:100960002B2002E0202101EAC000032A099001D0D7
:10097000072A05DB03464146204600F003FB0BE156
:100980002078800601D5E06900E00620B8F1650F07
:10099000814606D0B8F1660F18D0B8F1670F70D154
:1009A00031E00020B9F1110F009001DB112301E0CB
:1009B00009F101030AAA01A90CA8FFF7E2FEDDE98B
:1009C0000C70002609F10105834647E001204B46E3
:1009D00000904FF000470AAA01A90CA8FFF7D1FE2A
:1009E000DDE90DB00C995D46002610B909F1010052
:1009F0000D18B9EB050003D4C0F1FF3609F101056C
:100A0000A5EB09002BE0B9F1010F01DA4FF0010964
:100A10000020B9F1110F0090484601DD112300E0DC
:100A200003460AAA01A90CA8FFF7ABFEDDE90C708A
:100A30004D4600268346207800070AD4AB4500DAED
:100A40005D4601A8012D04DD411911F8011C302972
:100A500007D04F4502DA17F1040F04DA012082466D
:100A60000FE06D1EEEE7002F02DCED1B3E4403E0BD
:100A7000781CA84200DD7D1CB81B00F1010A4FF074
:100A800000472078000703D4AA4501DB4FF0FF3A66
:100A90000021B7F1004F0DF143088DF8431024D029
:100AA00002202B23002F01DA7F422D230A21021E70
:100AB000A0F1010000DC5FB197FBF1FC97FBF1F2C4
:100AC00001FB1C7C17460CF1300C08F801CDEEE759
:100AD000A8F1010003702188090501D5452100E036
:100AE0006521A0F1010800F8011C09980FA9A1EBEC
:100AF0000807FF1D00B10120411901EBEA70A1694F
:100B00003844081A401EA0612078C00602D420464E
:100B1000FFF790FD099828B1D4E901219047206A98
:100B2000401C20622078C00622D52046FFF782FDB7
:100B30001EE0002E04DBB34502DD01A8805D00E06D
:100B40003020D4E901219047206A401C2062761CA5
:100B5000AAF101005FEA000A0AD100F0C9F9C068F1
:100B60000168405CD4E901219047206A401C206262
:100B7000281EA5F10105DCDC07E0D4E9012118F805
:100B8000010B9047206A401C2062381EA7F1010724
:100B9000F3DC2046FFF764FD032011B041E60000BE
:100BA00001694A1C02610878704700B58FB0CDE931
:100BB00001310021059105497944CDE90310114621
:100BC0006846FFF72DFC0FB000BD0000E5FFFFFFFA
:100BD0000A6802F8010B0A60704710B5436913B147
:100BE000AFF3008001E0FFF7B5FB012010BD1278E4
:100BF00000F124010A7000224A700122EDE7116819
:100C00004FF0FF32E9E70000074B70B50D467B441B
:100C1000FFF7CBFF0446284600F0CCFA10B14FF0A6
:100C2000FF3070BD204670BD832D00002DE9FF5FB1
:100C300015468A460446DFF8AC80F8440027D8E918
:100C400000103E46CDE9001010E03AF816106A4652
:100C500002A800F0B3FA411C07D02178890603D519
:100C6000E269391891420DD80744761C2078800635
:100C700002D5E069B84205DDAE42E6DB3AF816007F
:100C80000028E2D1A069C01BA0612046FFF7D2FC7A
:100C9000D8E90010CDE90010002017E03AF818104C
:100CA0006A4602A800F08AFAB0F1FF3F81460BD0F5
:100CB00000250DF1080B05E0D4E901211BF8050022
:100CC00090476D1C4D45F7D308F10100B0428046B6
:100CD000E4DB206A384420622046FFF7C1FCBDE80F
:100CE000FF9F0000664C00002DE9F0418046D21DB8
:100CF00022F007020025D2E90002F52915A614D03A
:100D0000011E72F1000106DA0023D0EB030063EB51
:100D1000020211A608E0D8F800108B0701D50FA633
:100D200002E0490701D50EA601251146002408F16D
:100D3000240704E000F0E0F830323A55641C50EA31
:100D40000102F7D12B46324621464046BDE8F0412C
:100D5000FFF7A9BC000000002D0000002B000000E0
:100D60002000000030B4002100F1240408E002F06B
:100D70000705D208303542EA4372DB086554491C46
:100D800052EA0305F3D10468002310A2250707D512
:100D9000A40600D421B1C46901230DA2641EC4615C
:100DA00030BCFFF780BC10B5044621461068FFF741
:100DB00071FC02462046BDE810400023D2E7D21D58
:100DC00022F00701D1E90023CCE700000000000079
:100DD00030000000F0B40D460188090502D5214C11
:100DE0007C4402E01F4C7C440E34002100F12406B8
:100DF00008E002F00F071209E75D42EA03721B09DF
:100E00007754491C52EA0307F3D1027800231207F2
:100E100004D5702D06D009B1022311342246F0BC4E
:100E2000FFF741BC01231034F8E770B504460D46C6
:100E300021461068FFF72EFC024629462046BDE8F1
:100E400070400023C6E7D21D22F00703D3E9002338
:100E5000C0E70368126843F0200303600823C361FE
:100E60000023B7E7C84A00002DE9F04791460F4636
:100E700080460446002614F8015B2DB100F030F8DE
:100E80000068405DC007F6D12B2D02D02D2D18D063
:100E9000641E4A463946204600F0CAF827B1396830
:100EA000A14201D1C7F800804FF0020471050BD5B3
:100EB0004042002803DDFFF7B9FB0460A007BDE84E
:100EC000F08746F48066E4E70028F8DAFFF7AEFB27
:100ED00004606FF00040F2E70048704770040020A3
:100EE00010B500F005F8001D10BD00BF9D3F0000CB
:100EF000004870479004002030B5B0F10A024FEA74
:100F0000900E71F100034EEA817EB0EB0E0061EBB2
:100F100091014FEA101E4EEA017E10EB0E0041EBEC
:100F200011114FEA102E4EEA016E10EB0E0041EB4C
:100F300011214FEA104E4EEA014E10EB0E0041EB2C
:100F40001141401841F100014FEAD00040EA4170E0
:100F50004FEAD10110EB80054FEA810444EA907416
:100F600044EB01046D1944EB0404521BA3414FF000
:100F7000000348BF0A3200D530BD401C41F10001DA
:100F800030BD00002DE9F0411F46044603260168EC
:100F9000072A01F4006004DB08B116A505E016A5D8
:100FA00003E008B115A500E015A521F010002060B0
:100FB000A069C01EA0610FB1401EA0612046FFF7CE
:100FC00039FB4FB1D4E9012138469047206A401CD3
:100FD0002062C01C206206E0206AFAE7D4E9012101
:100FE00015F8010B9047761EF8D22046FFF738FB24
:100FF000BDE8F0814E414E006E616E00494E4600E4
:10100000696E660010B5436913B1AFF3008001E06B
:10101000FFF70CFE012010BD128800F1240182842C
:101020000022C2840122EDE711684FF0FF32E9E7A8
:101030002DE9F05F824615468B4600270AF1010430
:10104000B9460078302801D09DB113E014F8010BA7
:101050000127782803D0582801D045B10AE00DB106
:10106000102D07D1002714F8010B102502E00825E8
:1010700000E00A250026B0460EE005FB080005FB4F
:1010800006F101271FFA80F801EB1046B6F5803F04
:1010900000D3B94614F8010B294600F0D4F8002813
:1010A000EBDABBF1000F05D00FB1641E00E054462F
:1010B000CBF80040B9F1000F06D0FFF7B7FA0221D4
:1010C0000160C81EBDE8F09F48EA0640FAE700004C
:1010D0002DE9F047814616468AB0354878440DC858
:1010E0008DE80D0032487844801C03AC0DC884E8BC
:1010F0000D0041F69B300844372190FBF1F290FB44
:10110000F1F5A5F1800501FB12041B3C02D56442F8
:10111000012000E00020DFF898A080460027FA4474
:10112000AAF1BE0A0EE0E0070AD03246684607EB95
:10113000470101230AEB810100F06DFB8DE80700F8
:1011400064107F1C002CEED1194F7F44AE3F19E094
:10115000E80715D007EB04100DF1180A90E80E000F
:101160008AE80E00C068F04201D198190890324612
:10117000012306A903A800F04EFB03AB83E8070098
:101180006D10641C002DE3D14FF001033246694617
:10119000B8F1000F03A802D000F028FB01E000F036
:1011A0003AFBC9E90001C9F808200AB0BDE8F08798
:1011B00070480000007B00F08000704770B5164654
:1011C0000C460546FFF78CFE036893F801010128E1
:1011D00006D0FF2C0FD8185D68B101202C7070BDAF
:1011E000D3F807013246214603F207130344284689
:1011F000BDE8704018474FF0FF3070BD7546FFF7EF
:101200006BFEAE4605006946534620F00700854652
:1012100018B020B5FFF76CF8BDE820404FF000068D
:101220004FF000074FF000084FF0000B21F00701CE
:10123000AC46ACE8C009ACE8C009ACE8C009ACE811
:10124000C0098D4670473A2800D2303820F020027D
:10125000412A01D3A2F13700884201D34FF0FF3079
:10126000704710B50446AFF300802046BDE810403B
:10127000FFF729B84FF0013C50F8042B51F8043B1C
:101280009A4221D1A2EB0C03934313EACC1317D15A
:1012900050F8042B51F8043B9A4215D1A2EB0C03F1
:1012A000934313EACC130BD150F8042B51F8043BB1
:1012B0009A4209D1A2EB0C03934313EACC13DBD07F
:1012C0004FF00000704700BFD01A01BAB1FA81F1A7
:1012D00001F0180122FA01F0CB40C1F12001DBB28C
:1012E000C0B2C01A2CFA01F3D11A914311EAC3110A
:1012F000E6D170475FEA400C08BF91F0000F4FEA5B
:101300008C234FEAC12243EA51514FEA1C5018BFC7
:1013100000F5F0404FEA300018BF41F000415FEAAD
:101320006C5C00F02980BCF1FF3F08BF40F08040BA
:101330007047130C06BF12044FF0100C4FF0000C56
:10134000130E04BF12020CF1080C130F04BF12019C
:101350000CF1040C930F04BF92000CF1020CD30F9C
:1013600004BF52000CF1010C11464FF00002A0F135
:101370001F00A0EB0C00704711F0004F08BF704732
:1013800031F000413FF4D5AF0B0C06BF09044FF01C
:10139000100C4FF0000C0B0E04BF09020CF1080CEE
:1013A0000B0F04BF09010CF1040C8B0F04BF890063
:1013B0000CF1020CCB0F04BF49000CF1010CCCF175
:1013C0002003A0EB0C0022FA03F302FA0CF241EA2C
:1013D000030100F10100704720F07F4C80EA030018
:1013E00023F07F47ACEB070303F57C5300F000408C
:1013F00003F1FF032DE980494FEA154B09B44FEA89
:10140000144325EA0B4E24EA03480FF2042606EBA8
:10141000132749083E785FEA320203FB0667C7F5E7
:10142000000707FB06F64FEA54374FEAD64606F1A7
:10143000020607FB066CCCF1005C4FEA1C472CEA65
:10144000074C07FB06F40CFB06F504EB15464FEAC8
:10145000961634BF00204FF000404FEAD13706FB0C
:1014600007FC4FEA1C4C0CFB0BF7D21B03FB0CF7E1
:1014700061EB07010CFB0EF7B0EB074072EB174274
:101480000CFB08F734BFA2EB0742B2EB074261EB5B
:1014900017414FEA0C444FEA910706FB07FC4FEA5D
:1014A0001C4C0CFB0BF7B0EBC74072EB573203FB45
:1014B0000CF734BFA2EBC742B2EBC74261EB573126
:1014C0000CFB0EF7B0EBC70072EB57720CFB08F782
:1014D00034BFA2EBC702B2EBC70261EB5771039FA7
:1014E0004FEA816141EA921104EBCC044FEAD13713
:1014F0004FEA826206FB07FC42EA90124FEA8060E4
:101500004FEA1C4C0CFB0BF7D21B03FB0CF761EBF7
:1015100007010CFB0EF7B0EB074072EB17420CFB18
:1015200008F734BFA2EB0742B2EB074261EB174169
:101530004FEA8C554FEA910704EB9C2406FB07FC0D
:101540004FEA1C4C0CFB0BF7B0EBC74072EB573269
:1015500003FB0CF734BFA2EBC742B2EBC74261EB0F
:1015600057310CFB0EF7B0EBC70072EB57720CFB58
:1015700008F734BFA2EBC702B2EBC70261EB5771A9
:1015800015EB4C254FEA816141EA92114FEA8262E4
:101590004FEAD13742EA901206FB07FC44F10004FF
:1015A0004FEA80604FEA1C4C0CFB0BF7D21B03FB8D
:1015B0000CF761EB07010CFB0EF7B0EB074072EB89
:1015C00017420CFB08F734BFA2EB0742B2EB07420D
:1015D00061EB174115EB1C154FEA813141EA92414D
:1015E0004FEA823242EA90424FEA80304FEA0C766C
:1015F00044F1000448EA03434EEA0B484FF0000E62
:10160000B2EB080C71EB030724BF624639464EEB80
:101610000E0E4FF0000B0018524149414BEB0B0BE3
:10162000B2EB080C71EB03077BF1000B24BF6246A1
:1016300039464EEB0E0E4FF0000B00185241494157
:101640004BEB0B0BB2EB080C71EB03077BF1000BC0
:1016500024BF624639464EEB0E0E51EA020718BF10
:1016600046F0010616EB0E7655F1000254F100012A
:1016700003D5BDE88901BDE80088BDE88901BDE862
:101680000048B619524141EB0101A3F10103704733
:1016900080807F7E7D7C7B7A7978777676757473AF
:1016A000727171706F6E6E6D6C6C6B6A6A6968686E
:1016B000676666656464636362616160605F5F5E04
:1016C0005E5D5D5C5C5B5B5A5A595958585757567A
:1016D00056555555545453535252525151505050DF
:1016E0004F4F4F4E4E4D4D4D4C4C4C4B4B4B4A4A31
:1016F0004A49494948484847474747464646454575
:1017000045444444444343434342424242414141AD
:10171000002B9C4630D477002BD01CB54FEA3707FE
:1017200003B44FF010004FF01001BAF1000F06D0D3
:10173000BCF1000FDCBF40F0080040F008014FF0A2
:1017400000000FBCBDE810400BF1010BBBF1010F15
:1017500008BF5FEA170722BF12F1010211F1010170
:101760004FF0004143F1000300F0004043EA000065
:101770007047F9D35708D0E746EA064613F1400F01
:101780004FEA16461FDD13F1200FDFBF16430A464E
:10179000002120335B42BED0C3F1200746EA064653
:1017A00002FA07F74FEA164646EA0706C3F1200792
:1017B00022FA03F201FA07F721FA03F14FF00003CE
:1017C00042EA0702A7E746EA020646EA06464FEA69
:1017D000164646EA0106BCBF46EA0646360C4FF0FE
:1017E00000034FF000024FF0000194E72DE9804C18
:1017F0009A46934670B491E8380007C831EA400C25
:1018000048BF34EA430C03D5FFF7E6FDFFF780FF3E
:10181000F0BCBDE8008C2DE9804C9A46934670B42C
:1018200091E8380007C810F0804F08BF13F0804FD0
:1018300003D100F005F8FFF76BFFF0BCBDE8008CAA
:1018400020F07F4780EA030023F07F4C07EB0C0376
:10185000A3F57C5300F00040A3F1FE0392F0000FCB
:1018600000F0B38095F0000F00F077802DE901497A
:101870004FEA11404FEA144621EA004800FB06FCFB
:1018800024EA064708FB06F607FB08F800FB07F703
:1018900018EB06484CEB164C4FEA124B18EB074876
:1018A0004FEA15464CEB174022EA0B4E0BFB06FCA9
:1018B00025EA06470EFB06F607FB0EFE0BFB07F7B5
:1018C0001EEB064E4CEB164C4FF000061EEB074E7F
:1018D0004CEB174B18EB0B0840F1000018EB0E0B0C
:1018E00058EB000840F100008F1A4FF000013CBF98
:1018F000C943661B14BFB5EB040C00213CBFC943B0
:10190000F61B4FEA17444EEA8E0E27EA04454FEACB
:101910001C4704FB07622CEA074C05FB07F70CFB8E
:1019200005F604FB0CFC16EB074642EB174216EBE0
:101930000C4642EB1C421BEB060658EB02024141EF
:1019400046EA9E0601D5BDE80189B619524141EB30
:101950000101A3F10103BDE801894FEA14454FEAF3
:10196000114724EA054621EA074C05FB07F406FB6C
:1019700007F70CFB06F105FB0CFC11EB074144EBF0
:1019800017444FEA124711EB0C4144EB1C4422EA86
:10199000074C05FB07F206FB07F70CFB06F605FBF9
:1019A0000CFC16EB074642EB174216EB0C4642EBDB
:1019B0001C456A1854F1000148BF7047B6195241DE
:1019C00041EB0101A3F10103704795F0000F37D0FF
:1019D0004FEA11424FEA144721EA024624EA074C33
:1019E00002FB07F106FB07F70CFB06F402FB0CFCFD
:1019F00014EB074441EB17414FEA154714EB0C4435
:101A000041EB1C4125EA074C02FB07F506FB07F7F3
:101A10000CFB06F602FB0CFC16EB074645EB1745E4
:101A200016EB0C4645EB1C42121951F1000148BF60
:101A30007047B619524141EB0101A3F10103704710
:101A40004FEA14454FEA114724EA054621EA074CBC
:101A500005FB07F106FB07F70CFB06F24FF000064B
:101A600005FB0CFC12EB074241EB174112EB0C4259
:101A700051EB1C4148BF7047921841EB0101A3F1A3
:101A80000103704721B1826842F00102826003E0E5
:101A9000826822F001028260704700000021084A3B
:101AA0001168084A1140D0E900231A4383681A4399
:101AB000C3681A431143044AC2F804137047000074
:101AC00004230140E030FCFF002001400146C86CC7
:101AD00080B270470246002013680B400BB1012012
:101AE00000E000207047000030B5024600200023CF
:101AF0005068104C20400D790C6844EA05242043BE
:101B0000506090680C4C2040D1E903542C438D6800
:101B10002C434D7944EA450420439060D06A20F478
:101B200070000C7D641EE4B2234340EA0350D0628F
:101B300030BD0000FFFEFFFCFDF7FFC0F0B504461E
:101B40000D4600200021092D11DDE068A5F10A06EF
:101B500006EB4607072606FA07F18843A5F10A06B1
:101B600006EB460603FA06F10843E0600CE0206944
:101B700005EB4507072606FA07F1884305EB4506FE
:101B800003FA06F108432061072A0FDA606B561E3C
:101B900006EB86071F2606FA07F18843561E06EB5A
:101BA000860605FA06F10843606322E00D2A0FDA83
:101BB000206BD61F06EB86071F2606FA07F188431F
:101BC000D61F06EB860605FA06F10843206310E0EF
:101BD000E06AA2F10D0606EB86071F2606FA07F15A
:101BE0008843A2F10D0606EB860605FA06F10843C6
:101BF000E062F0BD816841F0804181607047000083
:101C000000B58DB00121084600F072FB01214802A9
:101C100000F08EFB20200B9003208DF83000002078
:101C20008DF833000BA9154800F09AF901214802FC
:101C300000F08EFB00214FF4007000F089FB0020C3
:101C400007900A9009904FF48030089007A8FFF79A
:101C500025FF002001908DF808008DF80900039001
:101C6000059001208DF8180001A90548FFF73CFFF9
:101C700001210348FFF706FF0DB000BD0000024040
:101C80000021014000B58DB00121084600F030FB75
:101C90000121080200F04CFB02200B9003208DF87C
:101CA000300000208DF833000BA9154800F058F9DA
:101CB0000121080200F04CFB00214FF4807000F07D
:101CC00047FB002007900A9009904FF4803008905D
:101CD00007A8FFF7E3FE002001908DF808008DF8BB
:101CE00009000390059001208DF8180001A905480E
:101CF000FFF7FAFE01210348FFF7C4FE0DB000BD57
:101D000000000240002001401CB50121202000F00D
:101D1000EFFA01208DF8040000208DF80600032062
:101D20008DF805000120009069461D4800F018F963
:101D300001211B4800F088F90220009069461848EC
:101D400000F00EF90221164800F07EF90420009000
:101D50006946134800F004F90421114800F074F9B1
:101D60000820009069460E4800F0FAF808210C4857
:101D700000F06AF9102000906946094800F0F0F878
:101D80001021074800F060F92020009069460448BF
:101D900000F0E6F82021024800F056F91CBD0000D2
:101DA0000014024000BFFEE739B1084A126801235F
:101DB00083401A43054B1A6006E0044A1268012367
:101DC00083409A43014B1A60704700000074004042
:101DD00030B5002200230A4C226840F6FE7484408D
:101DE000A243D1E900452C438D682C43CD6844EAD9
:101DF000050303FA00F42243014C226030BD0000C9
:101E00000074004008B500220092054A009200F1DB
:101E10000802009B1A440092009A116008BD00005D
:101E20000074004000B587B00121084600F060FA58
:101E30000121480700F06CFA1020059003208DF86E
:101E4000180002208DF81B0005A90B4800F088F847
:101E500000200190029003900220049001A900202C
:101E6000FFF7B6FF01210020FFF79EFF0021084683
:101E7000FFF7C8FF07B000BD0000024070B52DEDB0
:101E8000048B0446204603F08BFA41EC180B9FEDBF
:101E9000140B53EC102B51EC180B03F0E5F841EC4C
:101EA000180B9FED110B53EC102B51EC180B03F09A
:101EB0008BFA41EC190B9FED0E0B53EC102B03F03A
:101EC000D3F841EC180B51EC180B03F025FA85B24E
:101ED00029460020FFF796FFBDEC048B70BD000083
:101EE0000000000000408F40000000000000B040F3
:101EF0006666666666660A407047000070B504460E
:101F00000D46C4EB04204FF4B47190FBF1F631465A
:101F100006A0FEF713FAC5EB05204FF4B47190FB51
:101F2000F1F6314605A0FEF709FA70BD6164642040
:101F3000312C302C2564FFFFFF0000006164642019
:101F4000312C312C2564FFFFFF00000010B5044642
:101F50002146024801F0A9F910BD0000000C004024
:101F6000F0B50A4600210023002400BF3DE0012512
:101F700005FA01F3156805EA03049C4234D10568AB
:101F80004F000326BE40B543056015794E00B540AD
:101F90000668354305601579012D02D01579022DAB
:101FA00016D185684F000326BE40B543856055793C
:101FB0004E00B540866835438560456801268E40F1
:101FC000B5434560456896798E40B6B23543456065
:101FD000C5684F000326BE40B543C560D5794E00A5
:101FE000B540C6683543C560491C1029BFD3F0BD54
:101FF000F0B5002300244D07ED0E02FA05F3CE10D4
:1020000000F1200555F826504E07F70E0F26BE406A
:10201000B543CF1000F1200646F82750CE1000F14E
:10202000200555F8265045EA0304CE1000F120059E
:1020300045F82640F0BD0246002013690B400BB165
:10204000012000E0002070474183704710B504462E
:102050000723012221460848FFF770FD0648FFF7D5
:10206000C9FD00BF02210448FFF734FD0028F9D064
:102070000148FFF72BFD10BD0020014010B50446BC
:102080000723012221460848FFF758FD0648FFF7BD
:10209000B1FD00BF02210448FFF71CFD0028F9D064
:1020A0000148FFF713FD10BD002101402DE9F0416B
:1020B00007460C460025002608E03846FFF7DEFFFD
:1020C0000544052001F05EFB701CC6B2A642F4DB9D
:1020D000B5FBF4F080B2BDE8F0812DE9F041074690
:1020E0000C460025002608E03846FFF7AFFF054400
:1020F000052001F047FB701CC6B2A642F4DBB5FB1D
:10210000F4F080B2BDE8F08100BFFEE71CB501210C
:10211000102000F0EDF801208DF8040000208DF86B
:10212000060003208DF8050001200090694618483C
:10213000FFF716FF01211648FFF786FF02200090E7
:1021400069461348FFF70CFF02211148FFF77CFF97
:102150000420009069460E48FFF702FF04210C4856
:10216000FFF772FF0820009069460948FFF7F8FE64
:1021700008210748FFF768FF1020009069460448CF
:10218000FFF7EEFE10210248FFF75EFF1CBD0000C6
:102190000010024000BFFEE71CB50121042000F042
:1021A000A7F801208DF8040000208DF80600032018
:1021B0008DF805000220009069460948FFF7D0FE1F
:1021C00002210748FFF740FF0420009069460448B9
:1021D000FFF7C6FE04210248FFF736FF1CBD0000D2
:1021E000000802407047000070B5002100230F2254
:1021F000C4781CB3174C246804F4E064C4F5E064AC
:10220000C4F30721C1F10404E3B20A4144789C40BD
:10221000E1B28478144021430C07210E0E4C05785E
:102220006155047804F01F050124AC4005786D1158
:10223000AD0005F1E025C5F8004109E0047804F09F
:102240001F050124AC40054D0678761145F826405F
:1022500070BD00000CED00E000E400E080E100E073
:1022600002490143024A1160704700000000FA056C
:102270000CED00E000200649086001200549C1F886
:1022800088020549086000200249C1F880027047B1
:10229000A40243420080414290824142012006490B
:1022A000086000200549C1F888020549086001203E
:1022B0000249C1F880027047A402434200804142B3
:1022C0009082414200200649086001200549C1F87A
:1022D00088020020044908600249C1F88002704762
:1022E000A402434200804142908241427047000074
:1022F00029B1064A12680243044B1A6004E0034AFB
:1023000012688243014B1A60704700003038024067
:1023100029B1064A12680243044B1A6004E0034ADA
:1023200012688243014B1A60704700004038024037
:1023300029B1064A12680243044B1A6004E0034ABA
:1023400012688243014B1A60704700004438024013
:1023500029B1064A12680243044B1A6004E0034A9A
:1023600012688243014B1A60704700002438024013
:10237000F0B5002100220024022500260223324F5E
:102380003F6807F00C0121B1042905D0082937D195
:1023900005E02E4F076036E02D4F076033E02A4FEF
:1023A0003F1F3F68C7F38056274F3F1F3F6807F026
:1023B0003F036EB1264FB7FBF3F7DFF88CC0ACF1EB
:1023C000040CDCF800C0CCF3881C07FB0CF40CE018
:1023D0001E4FB7FBF3F7DFF870C0ACF1040CDCF86C
:1023E00000C0CCF3881C07FB0CF4174F3F1F3F685D
:1023F000C7F301477F1C7D00B4FBF5F7076002E0DF
:10240000124F076000BF00BF0F4F3F6807F0F00199
:102410000909104F7A5C0768D74047600A4F3F6848
:1024200007F4E051890A0B4F7A5C4768D740876010
:10243000054F3F6807F46041490B064F7A5C4768D7
:10244000D740C760F0BD0000083802400024F40007
:1024500000127A00760000207047000030B58BB083
:1024600004460D4601210820FFF752FF01212020DC
:10247000FFF73EFF01210846FFF73AFF0222002145
:102480001D48FFF7B5FD0120099002208DF82800B6
:1024900003208DF8290000208DF82A0001208DF8F6
:1024A0002B0009A91448FFF75BFDADF81850002078
:1024B000ADF81A000794ADF8200006A90F4800F007
:1024C000F7FE6020ADF804000120ADF80600002002
:1024D000ADF8100001A9094800F0A0FE0821074846
:1024E00000F0DAFE0121054800F062FE01210348F8
:1024F00000F06DFE0BB030BD00000240000C00404B
:102500000CB50020019000903448006840F4803001
:102510003249086000BF3148006800F40030009084
:102520000198401C0190009818B90198B0F5A04F8F
:10253000F1D12A48006800F4003010B10120009069
:1025400001E0002000900098012846D12348403047
:10255000006840F080502149403108602048006800
:1025600040F440401E4908601C48083000681B4980
:10257000083108600846006840F4004008600846DA
:10258000006840F4A05008601648091F0860081F42
:10259000006840F08070091F086000BF0F480068A5
:1025A00000F000700028F9D040F205700E49086074
:1025B0000A480830006820F0030008490831086024
:1025C0000846006840F00200086000BF0348083079
:1025D000006800F00C000828F8D10CBD003802405B
:1025E0000070004008544007003C024000200649AB
:1025F00008600649C1F888020120054908600020EA
:102600000249C1F880027047A4024342008041425F
:10261000908241420120064908600649C1F88802BB
:1026200000200549086001200249C1F88002704776
:10263000A402434200804142908241420120064967
:10264000086000200549C1F888020120044908609B
:102650000249C1F880027047A4024342008041420F
:10266000908241421CB501210820FFF741FE012163
:102670004020FFF73DFE01208DF8040000208DF87A
:10268000060003208DF805000120009069461448DB
:10269000FFF766FC01211248FFF7D6FC04200090EA
:1026A00069460F48FFF75CFC04210D48FFF7CCFC9E
:1026B0001020009069460A48FFF752FC1021084894
:1026C000FFF7C2FC4FF40070009069460548FFF721
:1026D00047FC4FF400710348FFF7B6FC1CBD000037
:1026E000000C02400018024010B57648007801281E
:1026F00003D100207449087005E07248007810B9D1
:1027000001207149087071480078002854D1704840
:102710000078012851D100206E49087045E0002062
:102720006D49086001206D49C1F88C0200206A499A
:1027300008390860091F0860091F0860322001F08D
:1027400021F8002064490860091F0860091F08601B
:10275000091F08606149C1F88002322001F012F8B7
:1027600000205D4908600120091F08600020091F42
:102770000860091F086001205849C1F88002322012
:1027800001F000F8002054490860091F0860091F83
:102790000860091F0860091F0860322000F0F2FF7E
:1027A0004C480078401C4B4908704A4800780A2879
:1027B000B5DB01204549087053E045480078002802
:1027C0004FD14749087045E000204349086043491C
:1027D000C1F88C020120404908390860091F0860CF
:1027E000091F0860322000F0CDFF00203A49086040
:1027F000091F0860091F0860091F08603749C1F8F0
:102800008002322000F0BEFF002033490860012022
:10281000091F08600020091F08600120091F0860C7
:1028200000202E49C1F88002322000F0ABFF0020CA
:1028300029490860091F0860091F0860091F08600E
:10284000091F0860322000F09DFF25480078401CD9
:1028500023490870224800780A28B5DB01201B496B
:10286000087020480078012821D11F4800780128ED
:1028700007D130201D49086031201D49C1F884026C
:102880001EE01C480078012806D131201749086055
:102890001749C1F8840213E01648007880B9312046
:1028A0001249086030201249C1F8840208E00D483E
:1028B000007828B930200D4908600D49C1F884021C
:1028C00010BD0000600000206400002065000020B2
:1028D0006100002069000020900242420000424254
:1028E000680000206200002067000020880241424A
:1028F00000004142630000201CB501210820FFF7C1
:10290000F7FC00208DF8040002208DF8070003205A
:102910008DF805000220009069461848FFF720FB5B
:1029200002211648FFF790FB0820009069461348E3
:10293000FFF716FB08211148FFF786FB20200090C7
:1029400069460E48FFF70CFB20210C48FFF77CFB83
:102950004020009069460948FFF702FB40210748E4
:10296000FFF772FB8020009069460448FFF7F8FAF1
:1029700080210248FFF768FB1CBD0000000C0240EC
:1029800010B502216548FFF756FB18B901206449CC
:10299000087008E002216148FFF74DFB012802D1D1
:1029A00000205F49087008215C48FFF744FB0128BC
:1029B00009D15C480078A0B900205B49087001206B
:1029C000584908700DE008215448FFF734FB40B91E
:1029D00054480078012804D1002053490870514917
:1029E000087020214D48FFF726FB012801D1012462
:1029F00000E0002480214948FFF71DFB08B90120B1
:102A000000E000200440A4B10120484908700020E3
:102A1000474908704749087047A0FDF78FFC4AA056
:102A2000FDF78CFC4CA0FDF789FC4FA0FDF786FC60
:102A300060E020213948FFF7FEFA08B9012400E0E0
:102A4000002480213548FFF7F6FA012800D100E084
:102A500000200440A4B101203449087034490870B2
:102A600000203449087034A0FDF768FC36A0FDF75B
:102A700065FC41A0FDF762FC43A0FDF75FFC39E077
:102A800020212648FFF7D7FA012801D1012400E0D0
:102A9000002480212148FFF7CEFA012800D100E070
:102AA000002004408CB100202049087021490870A2
:102AB00039A0FDF743FC24A0FDF740FC2EA0FDF754
:102AC0003DFC29A0FDF73AFC14E020211348FFF754
:102AD000B2FA08B9012400E0002480210F48FFF772
:102AE000AAFA08B9012000E00020044014B1012036
:102AF0002D49087040210948FFF79DFA01280BD1A4
:102B000031202A490870B4202949088029A0FDF7FE
:102B100015FC01202B49087010BD0000000C02407C
:102B2000600000206100002065000020620000209D
:102B3000630000206700002074352E7478743D22F5
:102B400022FFFFFF0000000074362E7478743D22CF
:102B500022FFFFFF0000000074372E7478743D22BE
:102B60004F6E22FFFFFF000074382E7478743D22F0
:102B700022FFFFFF0000000074372E7478743D229E
:102B800022FFFFFF0000000074382E7478743D228D
:102B90004F6E22FFFFFF000074352E7478743D22C3
:102BA0004F6E22FFFFFF000066000020450000205E
:102BB0004E000020706167652074696D65FFFFFF3E
:102BC000000000004A000020042808D14FF0E02156
:102BD000096941F004014FF0E022116107E04FF074
:102BE000E021096921F004014FF0E02211617047F2
:102BF0007047000010B51548006840F47000134994
:102C000008601348006840F0010011490860002086
:102C10000F49083108600E4800680E4908400C4909
:102C200008600D48091D0860081F006820F4802016
:102C3000091F0860002006490C310860FFF760FC9E
:102C40004FF0006001498039086010BD88ED00E058
:102C500000380240FFFFF6FE1030002410B52DEDC5
:102C6000048B0121880700F0BEFA012864D13648A0
:102C7000007808B9012000E00020344909780840B4
:102C8000002847D0324801883248008801F050FFC0
:102C900014281EDA0A2000F075FD2D4801882D4801
:102CA000008801F045FF0A2846DA2B48006802F048
:102CB00073FD41EC180B53EC182B28A0FDF73EFBDD
:102CC0000120214908709FED2A0A234880ED000A5F
:102CD00032E02148006802F05FFD41EC190B9FEDE6
:102CE000250B53EC102B02F017F941EC180B02F0F6
:102CF000E1F819490860084690ED000AF1EE040A6F
:102D0000B4EEE00AF1EE10FA16DD9FED190A80ED3F
:102D1000000A11E00E4801880E48008801F008FF03
:102D2000092801DD012000E000200749097808405A
:102D300010B10020044908700121880700F044FA0E
:102D4000BDEC048B10BD00004B0000204A000020A9
:102D50005200002054000020400000207432312E28
:102D60007478743D22252E3266207322FFFFFF0007
:102D7000000000007B14AE47E17A843F7FB5054632
:102D80000C4601210846FFF7C3FA0295ADF804404E
:102D90000020ADF80600ADF80C0001A94FF080400E
:102DA00000F086FA01221146900700F02DFA012169
:102DB000880700F00CFA1C208DF8000003208DF825
:102DC000010004208DF8020001208DF80300684600
:102DD000FFF70AFA7FBD000070B52DED048B0121CD
:102DE000884800F000FA01287ED18748008800F466
:102DF000004000283BD0844800788449087084480B
:102E000000788449087008460078302820D0562879
:102E10000DD0572812D05A2825D131207E4908706C
:102E2000B4207E4908807EA0FDF788FA1BE00120CF
:102E30007F4908707FA0FDF781FA14E000207C49EB
:102E4000087001208049087075A0FDF777FA0AE044
:102E500030207149087000207C4908707C49087056
:102E60007C49087000BF00BF0020674908800A2124
:102E70000120FFF732F9784908800846008800EE03
:102E8000100AB8EE400A10EE100A02F085FC41EC80
:102E9000190B9FED720B53EC102B02F095FA41ECDD
:102EA000180B02F007F86F490860084690ED000A19
:102EB000BCEEC00A10EE100A674908806948006835
:102EC00002F06AFC41EC190B9FED670B53EC102BE1
:102ED00002F07AFA41EC180B01F0ECFF614908604E
:102EE000084690ED000A00E084E0BCEEC00A10EE57
:102EF000100A594908805748007810B1474800889F
:102F000001E05B4800885B490880534800885A49C3
:102F100008805848008859490880454800780128A9
:102F200005D10846018854480088FEF7E7FF464867
:102F3000007870B15048018851A0FDF7FFF94F4863
:102F4000018853A0FDF7FAF94B48018855A0FDF719
:102F5000F5F9414801884748008801F0E9FD5649E4
:102F600008803D4801884348008801F09FFD53498F
:102F700008605148008840F6E4414843B42190FB82
:102F8000F1F04F49088008460088FEF777FF0A21D4
:102F90000520FFF78BF84B4908800846008800EEB3
:102FA000100AB8EE400AF7EE000A20EE200A464862
:102FB00080ED000A90ED000ABCEEC00A10EE100A87
:102FC00008802248007841490978084330B15A20E6
:102FD00000F07AFB0446FEF7B9FF0BE03C480168BD
:102FE0003848008801F0FAFC054600F06DFB044605
:102FF000FEF7ACFF0121034800F0E6F8BDEC048BBE
:1030000070BD000000040040740000204400002057
:10301000A803002056000020450000204E0000209C
:10302000706167652074696D65FFFFFF0000000037
:103030004800002070616765205049445F776176E1
:1030400065FFFFFF000000004A000020490000204B
:1030500046000020470000200000002066666666EB
:1030600066664A3F0400002046175D74D1455B4008
:10307000500000204C00002052000020540000208E
:103080007A302E76616C3D2564FFFFFF0000000062
:103090007432322E7478743D222564A1E322FFFF3E
:1030A000FF0000007432332E7478743D222564A131
:1030B000E322FFFFFF0000005C000020580000201A
:1030C0005E000020020000200800002064000020B4
:1030D0003C0000207FB505460C4601210220FFF789
:1030E00017F90295ADF804400020ADF80600ADF8E0
:1030F0000C0001A90D4800F0DBF8012211460B4835
:1031000000F082F80121094800F061F81D208DF8D7
:10311000000001208DF8010003208DF8020001203D
:103120008DF803006846FFF75FF87FBD000400409C
:1031300010B50121064800F056F8012803D1FFF729
:103140001FFCFFF7D1FA0121014800F03DF810BD46
:10315000000800407FB505460C4601210420FFF71A
:10316000D7F80295ADF804400020ADF80600ADF8A0
:103170000C0001A90D4800F09BF8012211460B48F4
:1031800000F042F80121094800F021F81E208DF8D6
:10319000000003208DF8010004208DF802000120BA
:1031A0008DF803006846FFF71FF87FBD0008004058
:1031B00021B1028842F08002028004E002884FF6CA
:1031C0007F731A4002807047CA430282704721B160
:1031D000028842F00102028004E002884FF6FE738A
:1031E0001A400280704730B50246002000230024B8
:1031F000158A05EA0103958905EA010413B10CB1AA
:10320000012000E0002030BD1AB183890B43838187
:1032100002E083898B4383817047000070B50024EE
:1032200000220023058C4FF6FE7635400584028C83
:103230008388048B4FF68F752C40B51E2C400D886B
:103240002C43751E2A408D892A434D882A43104DF0
:10325000A84202D00F4DA84213D14FF6F7752A406D
:10326000CD892A434FF6FB752A408D882A434FF6B5
:10327000FF652B404FF6FF552B400D8A2B434D8A9F
:103280002B43838004838D684563028470BD0000F6
:1032900000000140000401400A460021018B4FF666
:1032A000F773194011430183704741637047000071
:1032B00000220288184B98420ED0184B98420BD02F
:1032C000B0F1804F08D0164B984205D0154B98426C
:1032D00002D0154B984204D14FF68F731A404B8899
:1032E0001A43124B984207D0114B984204D04FF624
:1032F000FF431A400B891A4302804B68C3620B8854
:103300000385054B984202D0044B984201D18B7A39
:1033100003860123838270470000014000040140BE
:103320000004004000080040000C00400010004075
:103330000014004010B540F225511D4800F0DFF8A0
:1033400010B31B4800F094F9C4B21A48008800F486
:103350000040C8B91748008800F4804060B10A2CCA
:1033600003D000201349088020E01248008840F470
:1033700000401049088019E00D2C06D10D48008846
:1033800040F480400B49088010E00A480088C0F3F0
:103390000D0009490C5407480088401C0549088065
:1033A00008460088C72801DD0020088010BD000005
:1033B0000010014074000020A803002010B540F266
:1033C00025511D4800F09BF810B31B4800F050F940
:1033D000C4B21A48008800F40040C8B917480088F1
:1033E00000F4804060B10A2C03D00020134908800B
:1033F00020E01248008840F400401049088019E09D
:103400000D2C06D10D48008840F480400B490880FF
:1034100010E00A480088C0F30D0009490C54074821
:103420000088401C0549088008460088C72801DD3F
:103430000020088010BD0000004400400C00002067
:103440008800002010B540F225511D4800F057F8C3
:1034500010B31B4800F00CF9C4B21A48008800F4FD
:103460000040C8B91748008800F4804060B10A2CB9
:1034700003D000201349088020E01248008840F45F
:1034800000401049088019E00D2C06D10D48008835
:1034900040F480400B49088010E00A480088C0F3DF
:1034A0000D0009490C5407480088401C0549088054
:1034B00008460088C72801DD0020088010BD0000F4
:1034C000004800400E0000201802002021B182892F
:1034D00042F40052828104E082894DF6FF731A4063
:1034E0008281704702460020B1F5007F00D100BF05
:1034F00013880B400BB1012000E00020704770B52D
:103500000246002400230025002040F66A16B1423E
:1035100000D100BFC1F3421501F01F03012606FAD6
:1035200003F3012D02D19689334006E0022D02D12A
:10353000168A334001E0968A33400C12012606FABF
:1035400004F41688344013B10CB1012000E00020CF
:1035500070BDF0B50346002400260025002040F68B
:103560006A17B94200D100BF1846C1F3421401F0F6
:103570001F06012707FA06F5012C01D10C3004E0E3
:10358000022C01D1103000E014301AB107682F432B
:10359000076002E00768AF430760F0BD2DE9FF4711
:1035A00005460E460024A14600BFA046B08900B1E2
:1035B00000BF2C8A24F44054F08804432C82AC8948
:1035C00041F20C608443B088318908437189084313
:1035D0000443AC81AC8A24F44074B0890443AC82C7
:1035E0006846FEF7C5FE2048854202D01F48854246
:1035F00002D1DDF80C9001E0DDF80890A88900F414
:10360000004040B109EBC90000EB091031684900E6
:10361000B0FBF1F707E009EBC90000EB09103168D6
:103620008900B0FBF1F76420B7FBF0F0040120093A
:10363000642101FB1078A88900F4004040B13220D9
:1036400000EBC800B0FBF1F000F00700044308E015
:10365000322000EB08106421B0FBF1F000F00F0005
:1036600004432C81BDE8FF87001001400014014095
:1036700001468888C0F308007047C1F308028280C1
:10368000704700BFFEE703B401984100009850EA7C
:10369000C12018BF04204A0D18BF40F0010040F2BD
:1036A000FF72B2EB515F08BF40F00200012808BF73
:1036B000052002B0704730380A2801D20120704737
:1036C0000020704700BF704770B52DED068B044693
:1036D0000025B42C14DDC4F5B47001F04AFE41ECB1
:1036E0001A0B9FED150B53EC102B01F0BDFC41ECB8
:1036F000190B9FED130B53EC102B01F00DFC12E096
:10370000204601F04DFE41EC1A0B9FED0B0B53ECE4
:10371000102B01F0A9FC41EC190B9FED090B53ECA8
:10372000102B01F0F9FB41EC180B01F0F5FD85B20F
:103730002846BDEC068B70BD0AD7A3703D0AC73F73
:103740000000000000406F4010B504466FF0040018
:10375000FFF73AFAE11704EB5171C1F3C701074AC9
:1037600011701046007800EB4001C1EBC0104FF61D
:10377000FF7101EAC0000249088010BD6A00002004
:103780006C00002070B504464FF4077094FBF0F015
:10379000C6B24FF4077094FBF0F100FB114085B204
:1037A00005E04FF4077000F01BF8701EC6B2002E43
:1037B000F7D115B1284600F013F870BD70B5044676
:1037C00000250AE0002604E06420FFF7DBFF701C00
:1037D000C6B2142EF8DB681CC5B2A542F2DB70BD80
:1037E0000146114A12884A434FF0E0235A610022F1
:1037F0009A611A46126942F001021A6100BF4FF045
:10380000E022106900F001021AB100F48032002AAF
:10381000F5D04FF0E022126922F001024FF0E023D0
:103820001A6100229A6170476C00002070B504464E
:1038300000250948008800F4004058B100200649DE
:103840000988C1F30E01054A505421461046FCF781
:10385000B8FE0546284670BD0E0000201802002064
:103860002DE9F04106460D46144600270020134975
:103870000880314612A001F0C7F9E5B1DCB113E0D0
:103880000A20FFF77FFF0D48008800F4004058B180
:103890002846FFF7CBFF20B129460BA0FCF74EFDD1
:1038A00006E0002005490880601E80B2041EE7D1B2
:1038B00000BF04B901273846BDE8F0810E000020A2
:1038C00025730D0A0000000061636B3A25730D0A31
:1038D0000000000010B5322214A115A0FFF7C0FFB0
:1038E000142216A117A0FFF7BBFF4FF47A70FFF761
:1038F00049FF4FF47A70FFF745FF4FF47A70FFF7F6
:1039000041FF4FF47A70FFF73DFF142207A10FA08B
:10391000FFF7A6FF142205A116A0FFF7A1FF1422AE
:1039200002A117A0FFF79CFF10BD00004F4B000045
:1039300041542B43574D4F44453D320072656164FD
:103940007900000041542B525354000041542B4342
:10395000575341503D2241544B2D45535038323638
:1039600036222C223132333435363738222C312C62
:103970003400000041542B4349504D55583D31000F
:1039800041542B4349505345525645523D312C38F2
:103990003038300000BF054A128802F04002002A89
:1039A000F9D0C2B2014B9A8070470000001001406C
:1039B0000EB5012002904FF0000A4FF0000901906F
:1039C00000254FF4A060FEF74BFCA820FFF7BCFEDB
:1039D0004FF4E13001F040F94FF4E13001F092F999
:1039E0004FF4E13001F0E4F9FEF74CF9FEF708F985
:1039F000FEF718FAFEF78AFBFEF786F9FEF7CCFB16
:103A0000FEF77AFFFEF72EFE532142F20F70FFF70A
:103A1000B5F941F2670142F20F70FFF75BFB42F22A
:103A20000F710846FFF796FBA72142F20F70FEF7D1
:103A300015FDB420FEF78AFA3020FE490870FFF722
:103A400049FF00F0B1BFFB480078302876D1FA4832
:103A5000008800F40040002871D0F7480678002064
:103A6000F5490880012E6BD1F44890F800B0ABF115
:103A7000410028282CD2DFE800F09BADC0D2F6F43C
:103A8000F3F2F1F0EFEEEDECEBEA2B2B2B2B2BE925
:103A9000E8E7E6E52B2B2B2B2B2B142C45647F869C
:103AA0008D943020E6490860E649C1F88402002080
:103AB000E5490870E5490870E5A0FCF73FFCE8A07F
:103AC000FCF73CFCEAA0FCF739FCEDA0FCF736FC67
:103AD000F0E23020DA4908603120DA49C1F8840286
:103AE0000120D9490870D9490870E9A0FCF726FCE3
:103AF000EBA0FCF723FCDEA0FCF720FCE0A0FCF729
:103B00001DFCD7E23120CE4908603020CD49C1F8F4
:103B100084020120CC4908700020E5490870CB4997
:103B20000870DBA0FCF70AFCCDA0FCF707FCE1A0C5
:103B3000FCF704FCD2A0FCF701FCBBE228E3CDE2D9
:103B4000CDE23120BE490860BE49C1F8840201209F
:103B5000BD490870D64908700020BC490870CCA047
:103B6000FCF7ECFBBEA0FCF7E9FBC1A0FCF7E6FB11
:103B7000D4A0FCF7E3FB9DE20120D6490870D6A053
:103B8000FCF7DCFB96E20020D2490870D6A0FCF7D7
:103B9000D5FB8FE20120CF490870D9A0FCF7CEFBFE
:103BA00088E20020CB490870CFA0FCF7C7FB81E278
:103BB0000020D9490860D949C1F88C02D649083992
:103BC0000860091F08600120091F0860D4A0FCF7E5
:103BD000B5FB6FE20020D0490860D049C1F88C02E3
:103BE000CD49083908600120091F08600020091F1D
:103BF0000860D0A0FCF7A2FB5CE20020C649086088
:103C0000C649C1F88C02C449083908600120091F5F
:103C10000860091F0860CCA0FCF790FB4AE2002076
:103C2000BD490860BD49C1F88C020120BA49083974
:103C300008600020091F0860091F0860C7A0FCF782
:103C40007DFB37E22CE223E21BE210E208E2DDE03A
:103C5000C9E0B6E0A3E08FE07AE066E051E03BE047
:103C600026E012E0FFE70020AB490860AB49C1F84D
:103C70008C020120A84908390860091F0860091F43
:103C80000860BBA0FCF75AFB14E20020A2490860C0
:103C90000120A249C1F88C0200209F490839086020
:103CA000091F0860091F0860B6A0FCF747FB01E286
:103CB00000209949086001209849C1F88C02002031
:103CC000954908390860091F08600120091F08602C
:103CD000B1A0FCF733FBEDE100208F490860012023
:103CE0008E49C1F88C0200208B49083908600120F8
:103CF000091F08600020091F0860ACA0FCF71EFB2C
:103D0000D8E100208449086001208449C1F88C0270
:103D100000208149083908600120091F0860091F37
:103D20000860A7A0FCF70AFBC4E100207A490860FC
:103D300001207A49C1F88C027749083908600020CF
:103D4000091F0860091F0860A2A0FCF7F7FAB1E19B
:103D500000207149086001207049C1F88C026E4949
:103D6000083908600020091F08600120091F086049
:103D70009DA0FCF7E3FA9DE100206749086001205F
:103D80006649C1F88C02644908390860091F086057
:103D90000020091F086099A0FCF7D0FA8AE10020F2
:103DA0005D49086001205D49C1F88C025A49083913
:103DB0000860091F0860091F086095A0FCF7BEFA9B
:103DC00078E101205449086000205449C1F88C0270
:103DD000514908390860091F0860091F086091A04F
:103DE000FCF7ACFA66E101204B49086000204B4922
:103DF000C1F88C02484908390860091F0860012091
:103E0000091F08608CA0FCF799FA53E10120424990
:103E1000086000204149C1F88C023F490839086018
:103E20000120091F08600020091F086087A0FCF717
:103E300085FA3FE14500002074000020A80300201F
:103E400088024142000041426200002067000020D9
:103E500074352E7478743D224F6E22FFFFFF0000F0
:103E600074362E7478743D2222FFFFFF000000009C
:103E700074372E7478743D2222FFFFFF000000008B
:103E800074382E7478743D2222FFFFFF000000007A
:103E900074352E7478743D2222FFFFFF000000006D
:103EA00074362E7478743D224F6E22FFFFFF00009F
:103EB0006300002074372E7478743D224F6E22FF09
:103EC000FFFF000074382E7478743D224F6E22FF7D
:103ED000FFFF00004900002070616765206D6F6B77
:103EE000755F676FFFFFFF00706167652066756E25
:103EF0006374696F6E5F6D61696EFFFFFF000000A4
:103F00007061676520657175616C697A6174696F4C
:103F10006EFFFFFF0000000090024242000042429C
:103F200068302E76616C3D68302E76616C2B3130B6
:103F3000FFFFFF0068302E76616C3D68302E7661A1
:103F40006C2D3130FFFFFF0068312E76616C3D68CB
:103F5000312E76616C2B3130FFFFFF0068312E76F9
:103F6000616C3D68312E76616C2D3130FFFFFF00B2
:103F700068322E76616C3D68322E76616C2B313062
:103F8000FFFFFF0068322E76616C3D68322E76614D
:103F90006C2D3130FFFFFF0068332E76616C3D6879
:103FA000332E76616C2B3130FFFFFF0068332E76A5
:103FB000616C3D68332E76616C2D3130FFFFFF0060
:103FC00068342E76616C3D68342E76616C2B31300E
:103FD000FFFFFF0068342E76616C3D68342E7661F9
:103FE0006C2D3130FFFFFF0068352E76616C3D6827
:103FF000352E76616C2B3130FFFFFF0068352E7651
:10400000616C3D68352E76616C2D3130FFFFFF000D
:1040100068362E76616C3D68362E76616C2B3130B9
:10402000FFFFFF0068362E76616C3D68362E7661A4
:104030006C2D3130FFFFFF0068372E76616C3D68D4
:10404000372E76616C2B3130FFFFFF0068372E76FC
:10405000616C3D68372E76616C2D3130FFFFFF00BB
:104060000120FC490870FCA0FCF768F922E0002060
:10407000F84908700120FD490870FDA0FCF75EF9C1
:1040800018E00120FE490870FEA0FCF757F911E086
:104090000020FB490870AFF2B010FCF74FF909E0BF
:1040A0003120FD490870B420FC490880F0A0FCF7DD
:1040B00045F900BF00BF0A20FFF764FB0020F84964
:1040C0000860F849C1F88C02F54908390860091FF1
:1040D0000860091F08600A20FFF754FB23E0042E44
:1040E00021DA00240CE0F048005D0DF8040000BF68
:1040F0004021EE48FFF7F6F90128F9D1601CC4B25F
:10410000B442F0DB6846FCF74FFA85B2B5F5B47FF0
:1041100001DCE248058000208DF800008DF80100E8
:104120008DF802000025E248008800F4004078B3D2
:10413000DF480088C6B20020DD490880042E1FDA5F
:1041400000240CE0DB48005D0DF8040000BF4021B6
:10415000D948FFF7C7F90128F9D1601CC4B2B442AD
:10416000F0DB6846FCF720FA85B22946D3A000F0C0
:1041700023FD002D04DBB5F5B47F01DCD0480580BC
:1041800000208DF800008DF801008DF80200002558
:10419000C1480078312810D10120B9490870029037
:1041A000C848008800F4004038B13220BA4908708D
:1041B0000020C4490880FEF771F8B748007832281B
:1041C0007DD1C148007800287AD1AD4908700AF144
:1041D000010ABE48824501D1012000E00020029979
:1041E000012900D100E000210840002869D04FF0EB
:1041F000000AB9F1080F77D2DFE809F00416293C6C
:104200004F64778A0120B24908600020B149C1F8A3
:104210008402AF4908310860091D0860091D086063
:10422000AC49C1F89402A1E00020A949086001202E
:10423000A849C1F884020020A54908310860091D79
:104240000860091D0860A349C1F894028EE00020AF
:104250009F4908609F49C1F884029D490831086060
:10426000091D08600120091D086000209949C1F856
:1042700094027BE00020964908609649C1F88402C8
:1042800001209349083108600020091D0860091DBC
:1042900008609049C1F8940268E000208C490860E9
:1042A0008C49C1F884028A4908310860091D0860F8
:1042B000091D086001208749C1F8940256E073E3A4
:1042C0008AE058E001208249086000208149C1F855
:1042D00084027F4908310860091D0860091D0860D3
:1042E0007C49C1F8940241E025E00020784908604B
:1042F00001207849C1F8840200207549083108601E
:10430000091D0860091D08607249C1F894022DE07A
:1043100000206F4908606F49C1F884026C49083178
:1043200008600120091D08600020091D0860694916
:10433000C1F894021AE04FF00009012066490870A4
:104340000020029002206049087000206049086047
:104350006049C1F884025E4908310860091D08609F
:10436000091D08605B49C1F8940200BF00BF09F154
:10437000010000F0FF094E48008800F400400028CA
:1043800029D04B480088C6B2002049490880042E35
:1043900019DA00240CE04748005D0DF8040000BF66
:1043A00040214548FFF79EF80128F9D1601CC4B2AE
:1043B000B442F0DB6846FCF7F7F885B2B5F5B47F98
:1043C00001DC3F48058000208DF800008DF80100D9
:1043D0008DF802000025BFE23B4800780228FAD1A0
:1043E000FDF770FF0198012833D10027CAE00020B3
:1043F0002B4908602B49C1F88C0201202849083953
:104400000860091F0860091F08603220FFF7BAF929
:10441000002023490860091F0860091F0860091F60
:1044200008602049C1F880023220FFF7ABF9002074
:104430001B4908600120091F08600020091F08604F
:104440000120091F086000201649C1F880023220AF
:1044500044E09AE0480000207061676520504944BC
:104460005F77617665FFFFFF000000004A000020D3
:10447000706167652074696D65FFFFFF00000000D3
:1044800047000020706167652073655F6465627531
:1044900067FFFFFF00000000450000204E000020E5
:1044A0009002424200004242A80300200010014056
:1044B0000C0000208800002000440040256400001B
:1044C000500000200E00002046000020809698003A
:1044D000808242420080424249000020FFF752F9A8
:1044E0000020FE490860091F0860091F0860091FB5
:1044F0000860FB49C1F880023220FFF743F9002031
:10450000F64908600120091F08600020091F0860A3
:10451000091F0860F249C1F880023220FFF732F922
:104520000020EE490860091F0860091F0860091F84
:104530000860EB49C1F880023220FFF723F9002020
:10454000E64908600120091F08600020091F086073
:10455000091F08600120E249C1F880023220FFF7FC
:1045600011F90020DD490860091F0860091F086073
:10457000091F0860DA49C1F880023220FFF702F90A
:10458000781CC7B2052FFFF632AF00200190302013
:10459000D4490860D449C1F884020020D349087086
:1045A000D34908700120FFF709F9002743E00020F4
:1045B000CA490860CA49C1F88C020120C7490839B4
:1045C0000860091F0860091F08603220FFF7DAF849
:1045D0000020C2490860091F0860091F0860091F00
:1045E0000860BF49C1F880023220FFF7CBF80020F5
:1045F000BA4908600120091F08600020091F0860EF
:104600000120091F08600020B549C1F8800232204E
:10461000FFF7B8F80020B1490860091F0860091FBA
:104620000860091F0860AE49C1F880023220FFF718
:10463000A9F8781CC7B2052FB9DB0120FFF7BEF837
:10464000FDF7E8FF0120FFF7B9F83020A549086021
:104650003120A549C1F884020120A4490870A44969
:1046600008700520FFF7AAF84FF0000845E0002089
:104670009A49086001209A49C1F88C0200209749A4
:1046800008390860091F0860091F08603220FFF719
:1046900079F8002091490860091F0860091F086027
:1046A000091F08608E49C1F880023220FFF76AF8BE
:1046B00000208A4908600120091F08600020091FA6
:1046C0000860091F086001208549C1F88002322076
:1046D000FFF758F8002081490860091F0860091F8A
:1046E0000860091F08607E49C1F880023220FFF788
:1046F00049F808F1010000F0FF08B8F1050FB6DB3A
:104700003020784908607849C1F884020020774950
:104710000870774908700120FFF750F84FF0000843
:1047200045E000206D49086001206D49C1F88C0208
:1047300000206A4908390860091F0860091F0860DD
:104740003220FFF71FF8002064490860091F086045
:10475000091F0860091F08606149C1F88002322002
:10476000FFF710F800205D4908600120091F08606C
:104770000020091F0860091F086001205849C1F87E
:1047800080023220FEF7FEFF002054490860091F16
:104790000860091F0860091F08605149C1F88002BC
:1047A0003220FEF7EFFF08F1010000F0FF08B8F13A
:1047B000050FB6DB0120FFF701F8FDF717FF022018
:1047C000FEF7FCFF30204749086031204649C1F818
:1047D0008402012045490870454908700520FEF70C
:1047E000EDFF30203F490860091F086000203F4965
:1047F00008703F490870002743E0002037490860EF
:104800003749C1F88C020120344908390860091F72
:104810000860091F08603220FEF7B4FF00202F490E
:104820000860091F0860091F0860091F08602C49FB
:10483000C1F880023220FEF7A5FF0020274908605A
:104840000120091F08600020091F08600120091FBE
:10485000086000202249C1F880023220FEF792FF52
:1048600000201E490860091F0860091F0860091F11
:1048700008601B49C1F880023220FEF783FF781CD4
:10488000C7B2052FB9DB0220FEF798FFFDF7D6FE71
:104890000220FEF793FF31201249086030201249B0
:1048A000C1F88402012011490870002011490870E4
:1048B0000F4908700520FEF781FF30200949086084
:1048C000091F086000200949087009490870022082
:1048D000FEF774FFFDF7CEFC02200DE0900242428D
:1048E0000000424288024142000041426200002032
:1048F0006700002063000020FEF760FF31202B4995
:104900000860091F086001202949087029490870BA
:104910000020294908700520FEF750FF3020234968
:104920000860091F086000202149087022490870AA
:104930000220FEF743FF0520FEF740FF00201F493D
:10494000087030201E49087000201E4908701E495A
:1049500008708246012002901C48008800F4004044
:1049600010B31A4806781A4890F800B0BBF1560FF9
:1049700003D0BBF1570F13D107E001201549087090
:10498000AFF22C50FBF7DAFC0AE000201149087066
:10499000012011490870AFF22850FBF7CFFC00BF8F
:1049A00000BF002009490880FFF74DB88802414246
:1049B0006200002063000020670000204600002005
:1049C000450000204900002047000020740000201E
:1049D000A8030020480000204A0000200246481C8E
:1049E00070B941F28830824201DD052005E002F510
:1049F00016704FF47A7390FBF3F02A4B18600FE0B7
:104A000001290DD141F28830824201DD052005E007
:104A100002F516704FF47A7390FBF3F0214B186097
:104A20002048006848431F4B186018460068401D26
:104A30000B2833D2DFE800F02E2A26221E1A161287
:104A40000E0A06000020184B188027E03620164B6F
:104A5000188023E03F20144B18801FE04820124BA1
:104A600018801BE05120104B188017E05A200E4B85
:104A7000188013E063200C4B18800FE06C200A4B69
:104A800018800BE07520084B188007E07E20064B4D
:104A9000188003E0B420044B188000BF00BF024818
:104AA0000088704720000020100000200246501AA5
:104AB0001D4B186018460068B42808DD18460068C9
:104AC000C0F5B47018600120184B186029E0164832
:104AD000006810F1B50F01DD012000E00020124B4D
:104AE0001B6800EAD37040B10F48006840420E4B8B
:104AF000186001200D4B186013E00B48006810F19E
:104B0000B40F0ADA0848006800F5B470064B186064
:104B10004FF0FF30054B186003E04FF0FF30034BC0
:104B20001860024800687047240000203C00002004
:104B30000246501A1E4B186018460068B42808DD5B
:104B400018460068C0F5B47018600120194B186051
:104B500029E01748006810F1B50F01DD012000E0E1
:104B60000020134B1B6800EAD37040B11048006866
:104B700040420F4B186001200E4B186013E00C48A8
:104B8000006810F1B40F0ADA0948006800F5B47043
:104B9000074B18604FF0FF30064B186003E04FF0F2
:104BA000FF30044B18600248008880B27047000054
:104BB000240000203C0000200FB438B505A8009068
:104BC0000F48009A0499FBF7A7FB002000900C48BF
:104BD000FBF709FD85B200240DE000BF4021094824
:104BE000FEF780FC0028F9D00548015D0548FEF776
:104BF00044FD601C84B2AC42EFDB38BC5DF814FBB2
:104C000050010020004400400FB438B505A80090C2
:104C10000F48009A0499FBF77FFB002000900C4896
:104C2000FBF7E1FC85B200240DE000BF40210948FC
:104C3000FEF758FC0028F9D00548015D0548FEF74D
:104C40001CFD601C84B2AC42EFDB38BC5DF814FB89
:104C5000E00200200048004010B588B00446012161
:104C60000846FDF745FB01211020FDF761FB0722F7
:104C700009212248FDF7BCF907220A211F48FDF748
:104C8000B7F94FF4C060069002208DF81C008DF833
:104C90001D0000208DF81E0001208DF81F0006A9C0
:104CA0001648FDF75DF902940020ADF80C00ADF850
:104CB0000E00ADF81000ADF814000C20ADF8120095
:104CC00002A90F48FEF76AFC01210D48FEF7FEFB22
:104CD000012240F225510A48FEF73BFC25208DF8C1
:104CE000040003208DF805008DF8060001208DF8E2
:104CF000070001A8FDF778FA08B010BD00000240D7
:104D00000010014010B588B0044601210846FDF7A7
:104D1000EFFA01214804FDF7FBFA0722022122489D
:104D2000FDF766F9072203211F48FDF761F90C2002
:104D3000069002208DF81C008DF81D0000208DF8D3
:104D40001E0001208DF81F0006A91748FDF708F97D
:104D500002940020ADF80C00ADF80E00ADF8100084
:104D6000ADF814000C20ADF8120002A90F48FEF7B0
:104D700015FC01210D48FEF7A9FB012240F2255147
:104D80000A48FEF7E6FB26208DF8040003208DF884
:104D900005008DF8060001208DF8070001A8FDF739
:104DA00023FA08B010BD000000000240004400409B
:104DB00010B588B0044601210220FDF799FA0121BF
:104DC0008804FDF7A5FA07220A212248FDF710F909
:104DD00007220B211F48FDF70BF94FF440600690A6
:104DE00002208DF81C008DF81D0000208DF81E009B
:104DF00001208DF81F0006A91648FDF7B1F80294AE
:104E00000020ADF80C00ADF80E00ADF81000ADF8C4
:104E100014000C20ADF8120002A90F48FEF7BEFBEB
:104E200001210D48FEF752FB012240F225510A48AC
:104E3000FEF78FFB27208DF8040003208DF8050076
:104E40008DF8060001208DF8070001A8FDF7CCF9C8
:104E500008B010BD000402400048004010B5002911
:104E60000AD00878002807D005487844FCF702FAF1
:104E7000002801D0002010BD0248784410BD000079
:104E80001E0B0000160B000010B500290AD0087890
:104E9000002807D005487844FCF7ECF9002801D039
:104EA000002010BD0248784410BD00000E0B000029
:104EB000060B000021F00042A2F16052B2F5801F03
:104EC00001F0004328BFD2F17F6C0BD95FEA001CD0
:104ED00043EAC20242EB507018BF704728BF20F06F
:104EE00001007047B2F5801FBCBF184670474FEAFB
:104EF000410C1CF5001F02D2084600F0C3BC70B57F
:104F000000F00CFB00000089FFF7F6BF4FF00040F7
:104F1000A0F580007047000010B591EA030F48BF6C
:104F200083F0004300F15683841A71EB030C05D221
:104F3000121943EB0C03001B61EB0C01DFF824E1B9
:104F40004FEA1154A4EB135C1EEA430F18BF9EEA0C
:104F5000445F73D023EA0E03DCF1200E21EA0451F2
:104F600043F4801332D322FA0CFE10EB0E0023FA26
:104F70000CFE41EB0E01CCF1200E03FA0EFE10EBFD
:104F80000E0051F10001B1F5801FCCF1200E32D29C
:104F900001EB045112FA0EF2BDE8104058BF704701
:104FA000401C38BF5FEA420218BF7047002814BF98
:104FB00020F0010041F100014FEA410313F5001F09
:104FC00038BF7047A1F1C04100F0F6BA012A43EBA7
:104FD0000302ACF1200CDCF11F0E32BF4FF0000ECB
:104FE00023FA0CF310EB030041EB0451B4EB115F17
:104FF000D0D0A1EB045101F5801149085FEA3000DF
:1050000001EB04510ED350F1000038BF12FA0EFE2E
:1050100008D1BDE81040C9E7401C38BF5FEA420232
:10502000CAD1C3E7BDE810404FEA410313F5001FA2
:1050300038BF7047A1F1C04100F0BEBA9EEA445F9C
:1050400008D011EA5E0FBDE8104004BF01F0004136
:1050500000207047BDE8104070B500F05FFA00BF57
:1050600064FBBE3E0000E0FF2DE9C04130B4DFF834
:10507000A0C23CEA111418BF3CEA131400F0EC8003
:1050800081EA03051CEA111444EAD57418BF1CEA2E
:10509000131500F0C780A4EB05044FF0004545EA66
:1050A000C12145EAC32341EA505143EA525304F176
:1050B0007F74994204F500344FEAC0204FEAC222BF
:1050C00008BF904200F09C804FEA13650FF2401633
:1050D000765D4FEA134506FB05F7C7F1807706FBBF
:1050E00007F74FEAD737A7FB03687642C8F5803841
:1050F000A7FB06CE38BFA8F1010807FB08E64FF072
:10510000000EA6FB028CE6FB03CEDCF1000CCEF118
:10511000004E38BFAEF1010EA6FB0C584FF0000751
:105120004FF00005E6FB0E87A1FB08C6A0FB07CEEB
:1051300016EB0E0645F10005E1FB076515F1E04EA3
:105140007EBFA4F580345FEA46066D4116F1800704
:1051500045F100054FEA17274FEA066647EA05675B
:10516000A6F1DE46B6F1805F4FEA15251FD9384615
:1051700024F0010C05EBC471BCF1FE6F01EB0C11C6
:1051800002D8F0BCBDE8008124425CBF01F5801E5E
:105190009EEAC47F02D4F0BCBDE80081244238D42A
:1051A000F0BCA1F1C041BDE8004100F005BA4FEAF2
:1051B000D22242EA43524FEAD323A7FB02864FEAA8
:1051C000D02040EA415007FB03661EEA0E0F4FEA6B
:1051D000D12105FB026658BFA6EB0056B6EB005680
:1051E0004FEA520E4EEAC37E18EB0E0E56EB530EEC
:1051F000BDD518EB02085E417F1C55F10005B6E7EE
:105200004FF480154FF000074FF000064FF00008F4
:10521000ADE7F0BC4FF0000001F1C04101F00041EA
:10522000BDE8008111EA0C1F0CEA131500D00CE058
:1052300013EA0C1F00F025804FF00000F0BC81EA5B
:10524000030101F00041BDE80081F0BCBDE8004170
:1052500081EA030100F0B0B9F0BCBDE8004170B5CF
:1052600000F05CF9097EFC3E00F007B881EA03011A
:105270004FF0000001F00041704781EA030100F0A7
:105280009BB9F0BCBDE800414FF0000021497047D8
:10529000FFFDFBF9F7F5F4F2F0EEEDEBE9E8E6E4FB
:1052A000E3E1E0DEDDDBDAD8D7D5D4D3D1D0CFCD82
:1052B000CCCBCAC8C7C6C5C4C2C1C0BFBEBDBCBBBB
:1052C000BAB9B8B7B6B5B4B3B2B1B0AFAEADACABB6
:1052D000AAA9A8A8A7A6A5A4A3A3A2A1A09F9F9E90
:1052E0009D9C9C9B9A999998979796959594939342
:1052F000929191908F8F8E8E8D8C8C8B8B8A8989D9
:10530000888887878685858484838382828181805B
:105310000000FF070000F87F4FEA1153A3F58063F8
:10532000D3F11E03A8BFD3F1200C08DB4FF00042DD
:1053300042EAC12252EA505232FA03F0704709425F
:105340000BD4102BC4BF0020704703F5787CBCF150
:10535000FF3F05D04FF0FF3070474FF0000070471F
:1053600070B500F0DBF800BF499224800020704740
:10537000F0E710F0004248BF4042B0FA80F310FA64
:1053800003F10AD0C3F11D0303F580634FEA4150D6
:1053900002EB035202EBD12170474FF0000070473F
:1053A000B0FA80F310FA03F10AD0C3F11D0303F53C
:1053B00080634FEA41504FEA035202EBD12170471C
:1053C0004FF0000070470000DFF848C170B51CEADC
:1053D000111E1EBF1CEA13159EEA0C0F95EA0C0F56
:1053E00000F06F8081EA030423EA4C134EEAD47E76
:1053F00021EA4C1141F4801143F48013AE44A1FB27
:10540000024CA0FB0365AEF17F7E361955EB0C050F
:10541000A1FB034C4CF10003A0FB021C16EB0C0695
:10542000654153F10003094218BF46F0010613F429
:10543000007F0BD14FEA03314FEA0530340341EAD4
:10544000155140EA16506FF003020AE04FEAC321FB
:105450004FEAC520F40241EA555140EA56506FF038
:10546000020202EB2E4201EB025585EACE710AD010
:105470005FEA440C18BF24F0004450F1000041F1F1
:10548000000120EAD47040F2FE7C624500D270BD7B
:10549000A84214BF4FF080444FF04044002E08BF94
:1054A0000024BEF1806FA8BFA1F1C041BDE87040EB
:1054B00080F282804FF0000001F1C04101F0004114
:1054C00070479EEA0C0F0CEA131518BF95EA0C0FF3
:1054D00006D04FF0000081EA030E0EF0004170BDCF
:1054E00000F01CF88900013E00F007B800F009B890
:1054F0004FEA430C5FEA5C5C08D081EA030100F0EC
:105500005BB84FEA410C5FEA5C5CF6D14FF00000FB
:10551000014970470000FF070000F87F0EF1020EFE
:105520002EF0030E5EF8046B364205D4012A43EBDD
:10553000030515F5001F12D8012841EB010C1CF5DD
:10554000001F0CD80ED14FEAD17C15F5001F0CEBD3
:105550004C0C0CF1020C08BF4CEBD37C04E04FF078
:10556000080C01E04FEAD37C0CEB4C0526FA05F65B
:1055700006F00706B6F1040C06D20EEB860CBDE869
:1055800070404CF0010C6047DFE80CF0090B0202A0
:105590004FF000414FF00000A1F5002170BD194609
:1055A0001046012851EB010418BFD4F5001484BF44
:1055B000002001F0004170BD0808A0F500114FEA7D
:1055C0003101704710B591EA030F48BF83F00043E3
:1055D0003FF5AAAC841A71EB030C07D212198CF0B8
:1055E000004C43EB0C03001B61EB0C01DFF8A4E162
:1055F0004FEA1154A4EB135C1EEA430F18BF9EEA56
:10560000445F00F0B08023EA6E03524221EA045165
:10561000C3EB6E0338BF5B1EDCF1200E25D322FAEC
:105620000CFE10EB0E0043FA0CFE41EB0E01CCF128
:10563000200E03FA0EFE10EB0E0051F10001CCF12A
:10564000200E29D412FA0EF201EB0451BDE81040ED
:1056500058BF7047401C1CBFB2F1004F7047002874
:105660000CBF491C20F00100704712EB020E43EB07
:10567000030218BF4FF0010E4EEA4202ACF1200CBB
:10568000DCF11E0E54D943FA0CFE10EB0E0051F162
:10569000FF31CCF11E0ED5D50EF1010E12FA0EFE21
:1056A000404141EB010101EB445C5FEA5C5C10D9D5
:1056B00010EBDE7001EB045138BFBEF1004FBDE8C6
:1056C000104018BF704700280CBF491C20F0010093
:1056D000704730D24FEAD42C11F5001124F4006445
:1056E0001BD0B1FA81F20B3AA41AA41ED2F1200306
:1056F000914030FA03F31943904001EBCC71002C38
:1057000001EB0451BDE81040A8BF704701F1C04152
:105710004FF0000001F000417047B0FA80F310FA3A
:1057200003F100D110BDE41A173C4805C90AE4E7AB
:1057300001EB045110BD491001EB0451BDE81040CC
:105740004FEA300002E04FF0000170474A0008BF06
:105750000042F8D0B2F5001F28BF704701F00041A9
:105760004FF0000070479EEA445F07D011EA5E0FD9
:10577000BDE8104004BF002100207047BDE8104084
:1057800070B5FFF7CBFE00BF40DFF63E83F000416F
:10579000104670470000E0FF43004FEAD30C4FEA89
:1057A0003C0C43401FBF40070CF1605113F0FE4F0B
:1057B00070471CF0006F03D100200CF000417047CF
:1057C0000CF0004343EA507010B540EACC0000F002
:1057D0000EF800BF000000924FEA0001FFF7ECBE98
:1057E0004FF000414FF00000A1F5002170470EF18D
:1057F000020E2EF0030E5EF8044B244204D44FEA4E
:105800004102B2F17F4F11D84FEA4003B3F17F4F0D
:105810000CD80ED14FEAD07CB2F17F4F0CEB4C0C80
:105820000CF1020C08BF4CEBD17C04E04FF0080CEB
:1058300001E04FEAD17C0CEB4C0324FA03F404F0B2
:105840000704B4F1040C06D20EEB840CBDE8104042
:105850004CF0010C6047DFE80CF0070802024FF043
:105860000040A0F5800010BD0846420018BFD2F1EC
:10587000807288BF00F0004010BD4FF04070E1EE34
:10588000100A7047FF2141EAD050C0057047FBF76E
:1058900050B80400000800000000000000020001F1
:1058A0000000100000000000000000003031323322
:1058B0003435363738394142434445464030580044
:1058C0003031323334353637383961626364656676
:1058D0004030780002400000000000A000000000FE
:1058E00005400000000000C8000000000C4000005F
:1058F0000000409C00000000194000000020BCBED9
:105900000000000034400000BFC91B8E00000004EE
:10591000B5400000504BCFD06607E2CF0100000039
:105920006C4100003E8251AADFEEA7340100000066
:10593000D9420000DCB5A0E23A301F97FFFFFFFF1D
:10594000B4450000FD25A0C8E9A3C14FFFFFFFFF3C
:10595000FF3F00000000008000000000FF3F00004B
:105960000000008000000000B45A00080000002081
:1059700088000000C40100083C5B0008880000208B
:10598000480A0000E00100081C000000430000007D
:10599000F8FFFFFF0C0000000E0000000F000000E9
:1059A0002E0000001001000043000000F8FFFFFF80
:1059B0000040404040404040404041414141414022
:1059C00040404040404040404040404040404040D7
:1059D0004005020202020202020202020202020266
:1059E000022020202020202020202002020202026B
:1059F00002029090909090901010101010101010C3
:105A000010101010101010101010101002020202CE
:105A10000202888888888888080808080808080812
:105A2000080808080808080808080808020202020E
:105A30004000000000000000000000000000000026
:105A40000000000000000000000000000000000056
:105A50000000000000000000000000000000000046
:105A60000000000000000000000000000000000036
:105A70000000000000000000000000000000000026
:105A80000000000000000000000000000000000016
:105A90000000000000000000000000000000000006
:105AA00000000000000000000000000000000000F6
:105AB00000000000000000000000000000000000E6
:105AC00000000000000000000000000000000000D6
:105AD00000000000000000000000000000000000C6
