:020000040800F2
:10000000900C002041020008732C0008752C000899
:10001000792C00087D2C0008812C000800000000CD
:10002000000000000000000000000000852C000817
:10003000872C000800000000892C00088B2C000889
:100040005B0200085B0200085B0200085B0200081C
:100050005B0200085B020008658600085B0200087E
:100060005B0200088F8600085B0200085B02000844
:100070005B0200085B020008298700085B02000899
:100080005B0200085B0200085B0200085B020008DC
:100090005B0200085B0200085B0200085B020008CC
:1000A0005B0200085B0200085B0200085B020008BC
:1000B0005B020008DD8800085B0200085B020008A4
:1000C0005B0200085B0200085B0200085B0200089C
:1000D0005B020008EF800008719D0008D18E0008C7
:1000E0005B0200085B0200085B02000800F002F8F7
:1000F00000F090F80AA090E8000C82448344AAF132
:100100000107DA4501D100F085F8AFF2090EBAE82F
:100110000F0013F0010F18BFFB1A43F0010318473B
:1001200068F0000088F00000103A24BF78C878C159
:10013000FAD8520724BF30C830C144BF04680C60ED
:10014000704700000023002400250026103A28BF35
:1001500078C1FBD8520728BF30C148BF0B60704739
:100160006E290BF00B8270290BF0758366290DF058
:10017000BE8365290DF0BB8367290DF0B883612923
:10018000AFF3008003681B0A28BF41F08001692992
:100190000BF01C8064290BF0198075290BF0168078
:1001A0006F290BF0028378290BF04183E9290BF0CA
:1001B0009D82E4290BF09A82F5290BF09782EF29B2
:1001C0000BF0FF82F8290BF040830368DB0928BF9E
:1001D00041F0800163290BF00C8273290BF011822E
:1001E000E3290BF0E585F3290BF0EA850020704741
:1001F0001FB50BF081FE0400002000210CF06EFB07
:10020000401C6060002000210CF07EFBE0601FBD00
:1002100010B510BD0BF04BFE1146FFF7E9FF09F0DA
:1002200081FF0BF02DFF03B4FFF7F2FF03BC07F0D3
:10023000DFFE000030BF72B662B680F308887047F8
:100240000948804709480047FEE7FEE7FEE7FEE76A
:10025000FEE7FEE7FEE7FEE7FEE7FEE704480549A6
:10026000054A064B704700005F030008ED000008D8
:1002700090060020900C002090080020900800209C
:100280000CB50020019000906C48006840F480306C
:100290006A49086000BF6948006800F400300090B7
:1002A0000198401C0190009818B90198B0F5A06F12
:1002B000F1D16248006800F4003010B101200090D4
:1002C00001E0002000900098012843D15C480068BC
:1002D00040F010005A4908600846006820F003000A
:1002E00008600846006840F0020008605348406813
:1002F000524948600846406848600846406840F4F3
:10030000806048600846406820F47C1048600846D9
:10031000406840F4E81048600846006840F080708B
:10032000086000BF4548006800F000700028F9D060
:100330004248406820F00300404948600846406851
:1003400040F00200486000BF3C48406800F00C00EC
:100350000828F9D10CBD10B5FFF792FF10BD10B5FC
:100360003648006840F0010034490860084640689B
:10037000344908403149486008460068324908401D
:100380002E4908600846006820F48020086008466E
:10039000406820F4FE0048604FF41F008860FFF7BB
:1003A000DAFF4FF000602949086010BD10B5002148
:1003B00000200022214B5B6803F00C0121B10429CD
:1003C00006D0082928D107E0214B224C236027E0E2
:1003D0001F4B204C236023E0184B5B6803F4701024
:1003E000164B5B6803F48032022303EB904022B982
:1003F000194B4343174C23600DE0104B5B6803F42B
:10040000003323B1144B4343124C236003E0104BE1
:100410004343104C236003E00D4B0E4C236000BFA0
:1004200000BF064B5B68C3F303130C4CE15C094B44
:100430001B68CB40074C236010BD00000010024039
:10044000002002400000FFF8FFFFF6FE08ED00E08C
:1004500000127A000000002000093D000400002086
:1004600010B50446CC48844208D10121042000F094
:100470002DFB0021042000F029FB46E0C748844200
:1004800008D10121082000F021FB0021082000F004
:100490001DFB3AE0C248844208D10121102000F03F
:1004A00015FB0021102000F011FB2EE0BD48844216
:1004B00008D10121202000F009FB0021202000F0BC
:1004C00005FB22E0B848844208D10121402000F019
:1004D000FDFA0021402000F0F9FA16E0B34884420A
:1004E00008D10121802000F0F1FA0021802000F0E5
:1004F000EDFA0AE0AE48844207D10121801500F0F0
:10050000E5FA0021A01500F0E1FA10BD10B50121B7
:10051000084600F0DBFA0021012000F0D7FA10BDF8
:100520002DE9F0410246002500260020002300248A
:10053000002791F803C00CF00F0591F803C00CF0F0
:10054000100CBCF1000F03D091F802C04CEA050575
:1005500091F800C0BCF1000F31D0146800202BE0EE
:100560004FF0010C0CFA00F3B1F800C00CEA0306DE
:100570009E4220D183004FF00F0C0CFA03F7BC43CE
:1005800005FA03FC4CEA040491F803C0BCF1280FFF
:1005900006D14FF0010C0CFA00FCC2F814C00AE0BE
:1005A00091F803C0BCF1480F05D14FF0010C0CFAD3
:1005B00000FCC2F810C0401C0828D1D31460B1F868
:1005C00000C0BCF1FF0F34DD546800202EE000F1C4
:1005D000080C4FF0010808FA0CF3B1F800C00CEA5F
:1005E00003069E4221D183004FF00F0C0CFA03F753
:1005F000BC4305FA03FC4CEA040491F803C0BCF1C7
:10060000280F05D100F1080C08FA0CF8C2F8148084
:1006100091F803C0BCF1480F07D100F1080C4FF06E
:10062000010808FA0CF8C2F81080401C0828CED344
:100630005460BDE8F0814FF6FF71018002218170A6
:100640000421C17070470246002093680B400BB133
:10065000012000E0002070470146886880B27047A2
:1006600002460020D3680B400BB1012000E00020BF
:1006700070470146C86880B27047016170474161A8
:1006800070470AB1016100E041617047C160704785
:100690004FF480320A43826181618261826982699A
:1006A000704702460020434B18684FF6807318408D
:1006B00040EA021008433F4B186070473E49C8614A
:1006C0007047F0B50A46002300240021002500F001
:1006D0000046B6F1004F02D1364EF16901E0354EC9
:1006E0007168C0F3034583B200F44016B6F5401FAD
:1006F00008D121F070612F4E766826F070662D4F7C
:100700007E6012E000F48016B6F5801F06D1032645
:1007100006FA05F4A14341F0706106E0460D36018A
:1007200003FA06F6B14341F0706122B1460D36017D
:1007300003FA06F6314300F00046B6F1004F02D14D
:100740001C4EF16101E01B4E7160F0BD30B500221E
:100750008B071C0F0F2303FA04F2164B08338C107F
:1007600053F824309343134C08348D1044F825304B
:1007700023468C1053F824308C07240F00FA04F41D
:1007800023430C4C08348D1044F8253030BD0A4901
:10079000DC3108607047000000080140000C014097
:1007A000001001400014014000180140001C0140ED
:1007B000002001400000014000002042DF480068A6
:1007C00040F00100DD49086008464068DC49084007
:1007D000DA49486008460068DA490840D7490860A5
:1007E0000846006820F4802008600846406820F42D
:1007F000FE0048604FF41F0088607047CF490968C9
:1008000021F48031CD4A11601146096821F480211C
:100810001160B0F5803F03D0B0F5802F0ED106E017
:10082000C649096841F48031C44A116007E0C349F0
:10083000096841F4A021C14A116000E000BF00BF77
:10084000704710B501460022002300204A11012AFA
:1008500002D1BA4C236806E0022A02D1B74C236ABF
:1008600001E0B64C636A01F01F02012494401C4071
:100870000CB1012000E0002010BD38B50020009030
:100880000024002500BF3120FFF7DBFF054600985C
:10089000401C00900098B0F5A06F01D0002DF2D060
:1008A0003120FFF7CEFF08B1012400E000242046EC
:1008B00038BD01460020A14A106820F0F80040EA47
:1008C000C10010607047A0490860704702460020D0
:1008D0009A4B586820F47C1042EA01031843974B66
:1008E0005860704798490866704701460020934A4F
:1008F000506820F003000843506070478F484068FC
:1009000000F00C007047014600208C4A506820F02F
:10091000F00008435060704701460020874A506845
:1009200020F4E06008435060704701460020834A8D
:10093000506820F4605040EAC1005060704729B10F
:100940007E4A527A02437D4B5A7204E07B4A527AC5
:1009500082437A4B5A7270477B49D831086070479E
:1009600001460020754A506820F44040084350601A
:1009700070470021714A20321170704A82F82010AD
:10098000012802D004280AD104E001216B4A203258
:10099000117005E00521694A2032117000E000BFA6
:1009A00000BF70476949086070476449096A01439C
:1009B000624A11627047654944390860704730B532
:1009C00000210022002400235C4D6D6805F00C011D
:1009D00021B1042905D0082923D105E05C4D05602B
:1009E00022E05B4D05601FE0544D6D6805F4701208
:1009F000524D6D6805F48034022505EB92421CB916
:100A0000544D554305600BE04C4D6D6805F40035C1
:100A10001DB1504D5543056002E04D4D55430560F5
:100A200002E04B4D056000BF00BF444D6D6805F00E
:100A3000F0010909484D6B5C0568DD4045603F4D9C
:100A40006D6805F4E061090A434D6B5C4568DD4063
:100A500085603A4D6D6805F46051C90A3E4D6B5C86
:100A60004568DD40C560354D6D6805F44041890B32
:100A70003A4D6B5CC568B5FBF3F5056130BD29B136
:100A80002E4A526902432D4B5A6104E02B4A5269A7
:100A900082432A4B5A61704729B1284A926902431E
:100AA000264B9A6104E0254A92698243234B9A615E
:100AB000704729B1214AD2690243204BDA6104E030
:100AC0001E4AD26982431D4BDA61704729B11B4A25
:100AD000D2680243194BDA6004E0184AD2688243B4
:100AE000164BDA60704729B1144A12690243134B5E
:100AF0001A6104E0114A12698243104B1A6170476F
:100B000012494039086070470F49C86470470B4963
:100B1000C87170470948406A40F0807007494862D0
:100B2000704701460020054A92680A400AB1012038
:100B300000E00020704701498872704700100240B1
:100B40000000FFF8FFFFF6FE000042428004424230
:100B500000127A0000093D0014000020240000204B
:100B600010B50446BE48844208D101218014FFF725
:100B7000ADFF0021A014FFF7A9FF16E0B948844299
:100B800008D101210014FFF7AEFF00212014FFF768
:100B9000AAFF0AE0B448844207D10121C013FFF73D
:100BA000A2FF0021E013FFF79EFF10BD10B5002249
:100BB000028802F441520B884C8823438C882343DB
:100BC000CC8823430C8923434C8923438C892343BA
:100BD000CC8923431A430280838B4FF2FF74234056
:100BE00083830B8A038210BD2DE9F04F85B0054643
:100BF0000C464FF0000902274FF000084FF0010BA0
:100C00000026B246A88B4FF240010840A88302207C
:100C10002884B5F81C90A068022801D100BF38E0F4
:100C2000A08810B94FF0010B01E04FF0020B8D4886
:100C3000854200D100E000BF6846FFF7C0FEDDF846
:100C400000A0E088B0F5007F0AD14FEA1A2000EB3F
:100C500080004000A168B0FBF1F0401D86B20BE0BF
:100C60004FEA4B10BAFBF0F000EB80004000A168A7
:100C7000B0FBF1F0401D86B20A20B6FBF0F606F09C
:100C80000108A6EB0800C0F34F074FF6FF7000EA1B
:100C90000828022F01DBFF2F02DD02274FF000089A
:100CA000E08840EA080038432884A088A1890843E6
:100CB000618808432188084340F4006040EA09093C
:100CC000A5F81C9005B0BDE8F08F0021018041809F
:100CD0008180C180018141818181C181072101829F
:100CE00070470021018041808180C18002218160A4
:100CF00000218181704721B1028842F040020280C8
:100D000004E002884FF6BF731A400280704721B199
:100D1000828B42F48062828304E0828B4FF6FF3341
:100D20001A408283704730B5002400230C1101253E
:100D3000A540ABB21AB185881D43858002E0858845
:100D40009D43858030BD1AB183880B43838002E0C8
:100D500083888B43838070478181704701468889EF
:100D600070474FF6FF62914204D0028842F48072CD
:100D7000028004E002884FF6FF631A400280704749
:100D800021B1828842F00402828004E082884FF61A
:100D9000FB731A408280704702884FF2FF731A403B
:100DA000028002880A4302807047018841F4805122
:100DB0000180704721B1028842F40052028004E0B1
:100DC00002884DF6FF731A400280704702460020E9
:100DD000012901D0108B00E0908A70470146088AF3
:100DE0007047B1F5804F04D1028842F480420280FE
:100DF00004E002884BF6FF731A40028070470246F7
:100E0000002013890B400BB1012000E00020704747
:100E1000CA4302817047F0B5024600200024002337
:100E2000002501F00F070126BE40B4B20B110126C8
:100E30009E40B3B2968806EA03051689264016B18D
:100E40000DB1012000E00020F0BD10B5002201F03E
:100E50000F040123A3409AB2D343038110BD0000C5
:100E60000030014000380040003C0040314901435F
:100E7000314A1160704770B5002100230F22C478F9
:100E800004B32D4C246804F4E064C4F5E064210A42
:100E9000C1F10403CA40447804FA03F18478144091
:100EA00021430901254C0678A155047804F01F055B
:100EB0000124AC4005786D11AD0005F1E025C5F8C1
:100EC000004109E0047804F01F050124AC401C4DEA
:100ED0000678761145F8264070BD1A4A0A4002434A
:100EE000154B1B1F1A60704739B1134A121D126847
:100EF0000243114B1B1D1A6006E00F4A121D1268B7
:100F000082430D4B1B1D1A607047042808D14FF017
:100F1000E021096941F004014FF0E022116107E08E
:100F20004FF0E021096921F004014FF0E022116146
:100F3000704700000000FA050CED00E000E400E05E
:100F400080E100E080FFFF1F01684FF6FE72114054
:100F500001600021016041608160C1608D4988426B
:100F600008D18C490839496841F00F01894A083A8B
:100F700051608AE087491431884208D1854908398F
:100F8000496841F0F001834A083A51607DE08149A7
:100F90002831884208D17F490839496841F4706195
:100FA0007C4A083A516070E07A493C31884208D165
:100FB00078490839496841F47041764A083A5160E5
:100FC00063E074495031884208D172490839496850
:100FD00041F470216F4A083A516056E06D4964311E
:100FE000884208D16B490839496841F47001694A5F
:100FF000083A516049E067497831884208D165492B
:101000000839496841F07061624A083A51603CE031
:101010006149884206D1011F096841F00F01021F92
:10102000116032E05C491431884208D15A49091FE5
:10103000096841F0F001584A121F116025E0564935
:101040002831884208D15449091F096841F4706168
:10105000514A121F116018E04F493C31884208D1B3
:101060004D49091F096841F470414B4A121F116034
:101070000BE049495031884207D14749091F0968A7
:1010800041F47021444A121F1160704710B50022CC
:10109000026847F6F0739A430C6A8B6823430C6925
:1010A00023434C6923438C692343CC6923434C6A13
:1010B00023438C6A23431A430260CB6843600B6866
:1010C00083604B68C36010BD002101604160816096
:1010D000C160016141618161C161016241628162FE
:1010E000704721B1026842F00102026004E0026828
:1010F0004FF6FE731A40026070471AB103680B4343
:10110000036002E003688B430360704741607047EF
:101110000146486880B2704701460020002201F075
:1011200080531BB11C4B083B1A6802E0194B083B6B
:101130001A6802EA01030BB1012000E000207047A9
:1011400000F0805119B11449091F086002E01149EB
:1011500008394860704701460020002201F08053A2
:101160001BB10D4B083B1A6802E00A4B083B1A689A
:1011700002EA01030BB1012000E00020704700F0FB
:10118000805119B10449091F086002E0014908397A
:1011900048607047080002400804024030B943F23A
:1011A000DB028100A1F1C0410A6005E043F2D202F6
:1011B0008100A1F1C0410A606FF07042411C8900BA
:1011C000A1F1C0410A608100A1F1C041C1F8042130
:1011D000704710280AD118214FF020421166402193
:1011E00051664FF0FC319166D16610E01821F74A44
:1011F000116040214FF02042C2F884104FF0FC31C2
:10120000F24A083211604FF02042C2F88C10704749
:101210001820EE492031086000200906C1F8A4001A
:101220004FF0FC30E94928310860091D0860091DAC
:1012300008607047D0E901121143C2681143026986
:1012400011434269114382691143C2691143026A21
:101250001143426A1143826A1143C26A1143026B0D
:10126000114302689200A2F1C0421160816808290E
:101270000BD101688900A1F1C041096841F0400229
:1012800001688900A1F1C0410A60416B0968426BA5
:10129000526841EA0211426B926841EA0221426BB4
:1012A000928941EA0241426B128A41EA0251426B41
:1012B000127D41EA0261426B926911430268521C3D
:1012C0009200A2F1C0421160C16AB1F5804F1BD1FA
:1012D000816B0968826B526841EA0211826B9268E5
:1012E00041EA0221826B128A41EA0251826B127D2D
:1012F00041EA0261826B9269114302689200A2F195
:10130000C042C2F8041107E06FF070420168890022
:10131000A1F1C041C1F80421704730B5002100227D
:101320000023446844F0080485682C43C5682C43B6
:1013300005692C43456944EA4524856944EA4531F9
:10134000C4692468C5696D6844EA0524C5692D89A6
:1013500044EA0544C5692D7B44EA0562046A2468B1
:10136000056A6D6844EA0524056A2D8944EA054446
:10137000056A2D7B44EA05630468102C05D14FF003
:1013800020442166A266E36608E0904C21604FF09D
:101390002044C4F888208D4C0C34236030BD016893
:1013A00041F01001426841EA4221826841EA42313B
:1013B000864A20321160C1680968C268526841EAF1
:1013C0000221C268128941EA0241C268127B41EAE5
:1013D00002617E4A28321160016909680269526817
:1013E00041EA02210269128941EA02410269127B43
:1013F00041EA0261754A2C3211604169096842690B
:10140000526841EA02214269128941EA0241426975
:10141000127B41EA02614FF02042C2F8B0107047DF
:10142000002101600221416000218160C1600161F1
:1014300041618161C16101624FF4805141624900A3
:1014400081620021C16201630F21426B1160426B16
:101450005160FF21426B91600F21426BD160426B62
:101460001161426B51610021426B91610F21826BCE
:101470001160826B5160FF21826B91600F21826B42
:10148000D160826B1161826B51610021826B91612D
:10149000704710210160002141608160C1600161DD
:1014A00041618161FC21C2691160C2695160C269F8
:1014B0009160C269D160026A1160026A5160026A79
:1014C0009160026AD16070470021016041608160D3
:1014D000FC21C2681160C2685160C2689160C26834
:1014E000D16002691160026951600269916002690C
:1014F000D1604269116042695160426991604269FC
:10150000D160704751B18200A2F1C042126842F02E
:1015100001038200A2F1C042136009E08200A2F13F
:10152000C04212682A4B1A408300A3F1C0431A60DC
:10153000704799B1102808D14FF02042126E42F046
:1015400004024FF020431A661DE0204A126842F060
:1015500004024FF02043C3F8802014E0102809D182
:101560004FF02042126E1A4BDB1E1A404FF0204300
:101570001A6608E0154A1268154BDB1E1A404FF038
:101580002043C3F88020704748B1104920310968D2
:1015900041F004014FF02042C2F8A01009E00B49CD
:1015A000203109680A4AD21E11404FF02042C2F889
:1015B000A0107047B9B110280CD14FF02042126E24
:1015C00042F040024FF020431A661FE0800000A066
:1015D000FEFF0F00724A126842F040024FF02043B3
:1015E000C3F8802012E0102808D14FF02042126E7C
:1015F0006C4B1A404FF020431A6607E0684A1268A5
:10160000684B1A404FF02043C3F8802070470146D2
:101610000020102903D14FF02042506F02E0604AB1
:1016200014321068704710B5F2B1102807D14FF08E
:1016300020435B6E0B434FF02044636632E0B0F50D
:10164000807F08D1564B1B1D1B680B434FF0204475
:10165000C4F8843026E0524B24331B680B434FF010
:101660002044C4F8A4301DE0102807D14FF02043D7
:101670005B6E8B434FF02044636613E0B0F5807FD0
:1016800008D1474B1B1D1B688B434FF02044C4F807
:10169000843007E0424B24331B688B434FF02044D7
:1016A000C4F8A43010BD10B5024600200023102A53
:1016B00003D14FF02044636E09E0B2F5807F03D17F
:1016C000374C241D236802E0354C2434236803EA98
:1016D00001040CB1012000E0002010BD102807D14A
:1016E0004FF02042526E8A434FF020435A6613E077
:1016F000B0F5807F08D12A4A121D12688A434FF044
:101700002043C3F8842007E0254A243212688A4324
:101710004FF02043C3F8A420704770B50246002064
:10172000002300240025102A03D14FF02046736EB9
:1017300009E0B2F5807F03D1194E361D336802E00F
:10174000174E2436336803EA010403EAD10514B1C5
:101750000DB1012000E0002070BD102808D14FF02D
:101760002042526E22EAD1024FF020435A6615E021
:10177000B0F5807F09D10A4A121D126822EAD1020F
:101780004FF02043C3F8842008E0054A2432126851
:1017900022EAD1024FF02043C3F8A4207047000092
:1017A000800000A0BFFF0F0010B50446FB48844234
:1017B00009D101218803FFF789F900214FF4804006
:1017C000FFF784F932E0F648844209D10121480448
:1017D000FFF789F900214FF40030FFF784F925E085
:1017E000F048844209D101218804FFF77CF90021E7
:1017F0004FF48020FFF777F918E0EB48844209D1D5
:101800000121C804FFF76FF900214FF40020FFF712
:101810006AF90BE0E548844208D101210805FFF789
:1018200062F900214FF48010FFF75DF910BD2DE93A
:10183000F04786B005460E460024A24600BFA146EA
:101840000027B08900B100BF2F462C8A4CF6FF70EC
:101850000440F08804432C82AC894EF6F310044017
:10186000B08831890843718908430443AC81AC8A4C
:101870004FF6FF400440B0890443AC8201A8FFF753
:101880009EF8C648874202D1DDF810A001E0DDF8DD
:101890000CA0A88900F4004040B10AEBCA0000EB9C
:1018A0000A1031684900B0FBF1F807E00AEBCA0002
:1018B00000EB0A1031688900B0FBF1F86420B8FB36
:1018C000F0F004012009642101FB1089A88900F4CB
:1018D000004040B1322000EBC900B0FBF1F000F055
:1018E0000700044308E0322000EB09106421B0FB3C
:1018F000F1F000F00F0004432C8106B0BDE8F08742
:101900004FF41651016000218180C18001810C21BA
:10191000418100218181704710B502460020108A64
:101920004FF2FF0318400B884C8823438C882343D5
:10193000CC8823431843108210BD002101804180D0
:101940008180C180704721B1828942F40052828136
:1019500004E082894DF6FF731A4082817047F0B52A
:101960000346002400260025002040F66A17B942ED
:1019700000D100BF1846C1F3421401F01F06012731
:1019800007FA06F5012C01D10C3004E0022C01D13C
:10199000103000E014301AB107682F43076002E0EE
:1019A0000768AF430760F0BD1AB1838A0B43838297
:1019B00002E0838A8B4383827047028A4FF6F0737A
:1019C0001A400282028A0A430282704782894FF2D9
:1019D000FF731A40828182890A438281704721B154
:1019E000828942F00202828104E082894FF6FD730F
:1019F0001A4082817047028A4FF6DF731A400282D2
:101A0000028A0A430282704721B1028A42F480426C
:101A1000028204E0028A4BF6FF731A40028270478A
:101A2000C1F308028280704701468888C0F308002D
:101A30007047818941F0010181817047028BD2B2E8
:101A40000283028B42EA012202837047028B02F476
:101A50007F420283028B0A430283704721B1828A4C
:101A600042F02002828204E0828A4FF6DF731A403D
:101A70008282704721B1828A42F01002828204E0A1
:101A8000828A4FF6EF731A408282704721B1828AB0
:101A900042F00802828204E0828A4FF6F7731A400D
:101AA0008282704721B1828942F40042828103E040
:101AB0008289C2F30E028281704721B1828A42F488
:101AC0000062828204E0828A4FF2FF731A408282AF
:101AD0007047828A4FF6FB731A408282828A0A43D9
:101AE0008282704721B1828A42F00202828204E03F
:101AF000828A4FF6FD731A408282704702460020A8
:101B0000B1F5007F00D100BF13880B400BB101205D
:101B100000E00020704701F40072B2F5007F00D1B0
:101B200000BFCA430280704770B5024600240023FC
:101B30000025002040F66A16B14200D100BFC1F373
:101B4000421501F01F03012606FA03F3012D02D10D
:101B50009689334006E0022D02D1168A334001E017
:101B6000968A33400C12012606FA04F41688344093
:101B700013B10CB1012000E0002070BD10B50022AF
:101B8000002340F66A14A14200D100BF0A120124CA
:101B90009440A3B2DC43048010BD00000038014033
:101BA0000044004000480040004C0040005000400D
:101BB000002044490860091D0860091D0860091DCE
:101BC000086041483F4914310860704700213D4991
:101BD0008279002A3AD00A46126803689A430B4673
:101BE0001A600A1D126803689A430B1D1A60027975
:101BF00011440A6803681A430A60324A08321268BC
:101C000003689A432F4B08331A601A1D1268036841
:101C10009A432C4B0C331A604279102A0ED11A1FAA
:101C2000126803681A43274B08331A601A1D12689A
:101C300003681A43234B0C331A600DE021494279A3
:101C400011440A6803681A430A6005E002791144E6
:101C50000A6803689A430A607047002101600171B5
:101C60000C214171002181717047164910310968BA
:101C70000143144A10321160704701460020114A96
:101C8000143212680A400AB1012000E000207047B7
:101C90000C49143108607047014600200022094BAE
:101CA0001B6803EA0102074B14331B680B4013B196
:101CB0000AB1012000E00020704702491431086099
:101CC0007047000000040140FFFF0F0010B5012124
:101CD0004807FEF708FF00214FF00050FEF703FF12
:101CE00010BD30B5002200235A4C226840F6FE7425
:101CF0008440A243D1E900452C438D682C43CD6834
:101D000044EA050303FA00F42243524C226030BD3A
:101D10000021016041608160C160704739B14D4A66
:101D20001268012383401A434A4B1A6006E0494A6D
:101D30001268012383409A43464B1A60704741B1B1
:101D4000444A12684FF4805383401A43414B1A604F
:101D500007E0404A12684FF4805383409A433D4B5A
:101D60001A60704710B551B13A4A121D1268040941
:101D70000123A3401A43374B1B1D1A6009E0354A63
:101D8000121D126804090123A3409A43314B1B1D05
:101D90001A6010BD40B12F49091D096841F00301C7
:101DA0002C4A121D116007E02A49091D096821F01B
:101DB0000301284A121D1160704710B53AB1254B36
:101DC0001B6801FA00F42343224C236006E0214BF8
:101DD0001B6801FA00F4A3431E4C236010BD08B534
:101DE000002200921B4A009200F10802009B1A4454
:101DF0000092009A116008BD08B500220092154AB1
:101E0000009200F11402009B1A440092009A1160A3
:101E100008BD30B500240023082802D142EA01247D
:101E200001E042EA01440B4B00F120052B441C6009
:101E300030BD08B5014600200090064800902C20D7
:101E400000EB9100009A104400900098006880B266
:101E500008BD00000074004010B50446FE488442EE
:101E600008D10121C014FEF731FE0021E014FEF775
:101E70002DFEC4E0B4F1804F08D101210846FEF7E1
:101E800032FE00210120FEF72EFEB8E0F348844226
:101E900008D101210220FEF726FE00210220FEF7D4
:101EA00022FEACE0EE48844208D101210420FEF776
:101EB0001AFE00210420FEF716FEA0E0E948844245
:101EC00008D101210820FEF70EFE00210820FEF7B0
:101ED0000AFE94E0E448844208D101211020FEF774
:101EE00002FE00211020FEF7FEFD88E0DF4884425C
:101EF00008D101212020FEF7F6FD00212020FEF769
:101F0000F2FD7CE0DA48844208D101214014FEF75A
:101F1000DDFD00216014FEF7D9FD70E0D548844254
:101F200009D10121C804FEF7D1FD00214FF40020A2
:101F3000FEF7CCFD63E0D048844209D101210805B9
:101F4000FEF7C4FD00214FF48010FEF7BFFD56E000
:101F5000CA48844209D101214805FEF7B7FD002196
:101F60004FF40010FEF7B2FD49E0C548844208D1A5
:101F700001214020FEF7B7FD00214020FEF7B3FD10
:101F80003DE0C048844208D101218020FEF7ABFD2E
:101F900000218020FEF7A7FD31E0BB48844208D134
:101FA00001218015FEF79FFD0021A015FEF79BFD86
:101FB00025E0B648844209D101210804FEF786FDD8
:101FC00000214FF48030FEF781FD18E0B0488442D4
:101FD00009D101214804FEF779FD00214FF40030BA
:101FE000FEF774FD0BE0AB48844208D10121880460
:101FF000FEF76CFD00214FF48020FEF767FD10BD59
:1020000000220288944B98420ED0994B98420BD0F4
:10201000B0F1804F08D0914B984205D0904B984238
:1020200002D0904B984204D14FF68F731A404B88E0
:102030001A438D4B984207D08C4B984204D04FF6F0
:10204000FF431A40CB881A4302808B8883850B8814
:102050000385814B98420BD0854B984208D08B4B1F
:10206000984205D08A4B984202D08A4B984201D1BF
:102070000B7A038601238382704770B50024002207
:102080000023058C4FF6FE7635400584028C83884C
:10209000048B4FF68F752C40B51E2C400D882C43B9
:1020A000751E2A400D892A434D882A436A4DA8424D
:1020B0000BD06F4DA84208D0744DA84205D0744D86
:1020C000A84202D0734DA84213D14FF6F7752A40AB
:1020D0004D892A434FF6FB752A408D882A434FF6D7
:1020E000FF652B404FF6FF552B408D892B43CD8943
:1020F0002B4383800483CD888586028470BD70B5B0
:10210000002400220023058C4FF6EF76354005842D
:10211000028C8388048B48F6FF752C404FF6FF45F0
:102120002C400D884FF6FF7606EA05252C434FF626
:10213000DF752A400D8906EA05152A434D8806EA0F
:1021400005152A43444DA84202D0494DA8421DD14D
:102150004FF67F752A404D894FF6FF7606EA051542
:102160002A434FF6BF752A408D8806EA05152A4393
:102170004FF6FF352B404FF2FF752B408D8906EA55
:1021800085052B43CD8906EA85052B43838004838F
:10219000CD880587028470BD70B50024002200231D
:1021A000058C4FF6FF6635400584028C8388848B4E
:1021B0004FF68F752C404FF6FC752C400D882C4344
:1021C0004FF6FF552A400D894FF6FF7606EA0525A2
:1021D0002A434D8806EA05252A431F4DA84202D00E
:1021E000234DA8421DD14FF2FF752A404D894FF66D
:1021F000FF7606EA05252A434FF6FF352A408D88EB
:1022000006EA05252A434EF6FF752B404DF6FF756D
:102210002B408D8906EA05152B43CD8906EA051565
:102220002B4383808483CD888587028470BD70B5FD
:10223000002200230024058C4EF6FF7635400584ED
:10224000038C8488828B48F6FF752A404FF6FF4541
:102250002A400D8820E00000002C014000040040CE
:1022600000080040000C0040001000400014004036
:1022700000340140004C0140005001400054014036
:1022800000180040001C00400020004000400140B9
:1022900000440140004801404FF6FF7606EA05255C
:1022A0002A434DF6FF752B400D8906EA05352B4371
:1022B0004D8806EA05352B43FA4DA84202D0FA4D67
:1022C000A84208D14BF6FF752C408D894FF6FF765A
:1022D00006EA85152C4384808283CD88A0F840507F
:1022E000038470BD828B4FF2FF331A408283828B4E
:1022F0004FF6FF7303EA01231A4382837047F0B558
:102300000C461546002200210026078C4EF6FF7C65
:1023100007EA0C070784828B018C4FF6FF7707EAE8
:10232000043640F6FF473A404FF6FF7707EA0527A5
:102330003A434FF6FF7707EA03373A43D94FB8429B
:102340000ED0D94FB8420BD0B0F1804F08D0D74F44
:10235000B84205D0D64FB84202D0D64FB84206D1C7
:102360004DF6FF77394046F48057394305E047F68C
:10237000FF57394044F48057394382830184F0BDCC
:10238000828B4FF6F3731A408283828B0A438283D7
:102390007047F0B50C461546002200210026078C38
:1023A0004FF6FF6C07EA0C070784828B018C4FF60F
:1023B000FF7707EA04264FF60C773A404FF6FF778F
:1023C00007EA03172F433A43B64FB8420ED0B64F31
:1023D000B8420BD0B0F1804F08D0B44FB84205D00E
:1023E000B34FB84202D0B34FB84206D14FF6FF57B1
:1023F000394046F48077394305E04FF2FF573940C2
:1024000044F48077394382830184F0BD028B4FF21C
:10241000FF331A400283028B4FF6FF7303EA012356
:102420001A4302837047F0B50C461546002200217E
:102430000026078C4FF6EF7C07EA0C070784028B17
:10244000018C4FF6FF7707EA041640F6FF473A4043
:102450004FF6FF7707EA03373A434FF6FF7707EA6D
:1024600005273A438F4FB8420ED08F4FB8420BD05A
:10247000B0F1804F08D08D4FB84205D08C4FB84294
:1024800002D08C4FB84206D14FF6DF77394046F084
:102490001007394305E04FF65F77394044F01007E5
:1024A000394302830184F0BD028B4FF6F3731A4067
:1024B0000283028B0A4302837047F0B50C4615462F
:1024C00000220021068C4FF6FE773E400684028BE8
:1024D000018C4FF60C7632407E1C06EA03162E4322
:1024E0003243704EB0420ED06F4EB0420BD0B0F1BE
:1024F000804F08D06D4EB04205D06D4EB04202D034
:102500006C4EB04206D14FF6FD76314044F00106E4
:10251000314305E04FF6F576314044F00106314392
:1025200002830184F0BD70B505460C465D488542C6
:102530000ED05D4885420BD0B5F1804F08D05B4886
:10254000854205D05A48854202D05A48854200D17A
:1025500000E000BF208850B92389A28861882846FE
:10256000FFF7ABFFE1882846FFF79EFF25E02088B4
:1025700004280AD12389A28861882846FFF753FFDF
:10258000E1882846FFF742FF17E0208808280AD193
:102590002389A28861882846FFF7FBFEE188284648
:1025A000FFF7EEFE09E02389A28861882846FFF73D
:1025B000A6FEE1882846FFF795FE70BD2DE9F041A3
:1025C00005460C4600260127608808B9022600E06F
:1025D0000026A088012801D1022700E001272088D9
:1025E000A0B92389A28861882846FFF766FFE188A1
:1025F0002846FFF759FF23893A4631462846FFF718
:1026000012FFE1882846FFF701FF13E02389A28823
:1026100061882846FFF707FFE1882846FFF7F6FEA6
:1026200023893A4631462846FFF747FFE188284686
:10263000FFF73AFFBDE8F0810A884B881A438B8880
:102640001A43CB881A430B891A434B891A438B8947
:102650001A43A0F8442070474FF6FF718180002193
:102660000180C1804180017270470021018041805A
:102670008180C180018141818181C18170470021B8
:1026800001804180012181800021C180018170474A
:102690000021018041808180C1800181418181814F
:1026A00070470000002C014000340140000400404D
:1026B00000080040000C004021B1028842F00102F5
:1026C000028004E002884FF6FE731A4002807047D1
:1026D00031B1B0F8442042F40042A0F8442005E0B3
:1026E000B0F84420C2F30E02A0F8442070471AB19B
:1026F00083890B43838102E083898B438381704705
:102700008182704741EA0203A0F8483070471AB14D
:1027100083890B43838102E083898B4383817047E4
:1027200001894FF6F8721140018170470A46002175
:1027300001894FF68F73194011430181704730B5FD
:1027400004460D4629462046FFF7F0FF208940F059
:102750000700208130BD2DE9F04104460D461646A4
:102760001F46602D06D13B46012231462046FFF729
:102770005AFE05E03B46012231462046FFF79DFE0A
:1027800029462046FFF7D2FF208940F0070020812C
:10279000BDE8F08130B50C4600210189C9B24FF681
:1027A000FF7505EA0325154325432943018130BD03
:1027B0002DE9F04105460E4617469846002443464B
:1027C0003A4631462846FFF7E5FF2C894FF6F87068
:1027D000044044F007044FF68F70044044F0700446
:1027E0002C81BDE8F081F0B504460D4616461F4623
:1027F0003B46324629462046FFF7CCFF208940F46D
:1028000080402081F0BD0185828270470A46002108
:1028100001884FF68F731940114301807047F0B55E
:102820000C4615461E460021002200230189028B1A
:10283000038C4FF6F877394021434FF6FC473A4076
:1028400040F201173A434FF6DD773B404FF6FF77F2
:1028500007EA06172F433B43018102830384F0BD3F
:102860000A460021018B4FF68F73194011430183F3
:1028700070470A460021018B48F6FF7319404FF656
:10288000FF7303EA02231943018370470A460021BC
:10289000818B4FF68F7319401143818370470A462D
:1028A0000021818B48F6FF7319404FF6FF7303EA4E
:1028B000022319438183704721B1028842F08002CC
:1028C000028004E002884FF67F731A40028070474E
:1028D00021B1828842F00402828004E082884FF6AF
:1028E000FB731A408280704721B1828842F008024F
:1028F000828004E082884FF6F7731A408280704726
:1029000021B1828842F00102828004E082884FF681
:10291000FE731A40828070470A460021018B4FF6F1
:10292000F77319401143018370470A460021018B58
:102930004FF2FF7319404FF6FF7303EA0223194366
:10294000018370470A460021818B4FF6F7731940C7
:102950001143818370470A460021818B4FF2FF7338
:1029600019404FF6FF7303EA02231943818370472E
:102970000A460021018B4FF6FB7319401143018376
:1029800070470A460021018B4FF6FF3319404FF67E
:10299000FF7303EA02231943018370470A460021AB
:1029A000818B4FF6FB7319401143818370470A46B0
:1029B0000021818B4FF6FF3319404FF6FF7303EA76
:1029C00002231943818370470A460021018B4FF689
:1029D0007F7319401143018370470A460021018B20
:1029E000C1F30E014FF6FF7303EA0223194301837B
:1029F00070470A460021818B4FF67F7319401143BF
:102A0000818370470A460021818BC1F30E014FF686
:102A1000FF7303EA02231943818370470A460021AA
:102A2000018C4FF6FD7319401143018470470A462B
:102A30000021018C4FF6F773194011430184704750
:102A40000A460021018C4FF6DF7319404FF6FF73E1
:102A500003EA02131943018470470A460021018CDE
:102A60004FF67F7319404FF6FF7303EA02131943C1
:102A7000018470470A460021018C4FF6FF5319402C
:102A80004FF6FF7303EA02231943018470470A4695
:102A90000021018C4FF2FF7319404FF6FF7303EAD8
:102AA00002231943018470470A460021018C4DF628
:102AB000FF7319404FF6FF7303EA02331943018491
:102AC000704730B5002301248C40A3B2048C9C4392
:102AD0000484048C02FA01F5ADB22C43048430BDA9
:102AE00030B5002304248C40A3B2048C9C4304849E
:102AF000048C02FA01F5ADB22C43048430BD70B5EC
:102B00000346002000241846183001258D40ACB241
:102B10001D8CA5431D8409B1082909D100EB610072
:102B2000056825F0700505600568154305600EE031
:102B30000D1FC5F34E052844056825F4E0450560E2
:102B400005684FF6FF7606EA02263543056070BD3C
:102B500021B1028842F00202028004E002884FF6AE
:102B6000FD731A400280704721B1028842F00402CE
:102B7000028004E002884FF6FB731A40028070471F
:102B800021B1828842F08002828004E082884FF680
:102B90007F731A408280704702884FF6F7731A409D
:102BA000028002880A430280704782884FF68F7342
:102BB0001A40828082880A438280704702894FF6D9
:102BC000F8731A40028102890A4302817047028920
:102BD0004FF67F731A40028102890A4302817047CF
:102BE000818470478185704781867047018770476F
:102BF00081877047A0F84010704702884FF6FF4366
:102C00001A40028002880A43028070470146888E7B
:102C100070470146088F70470146888F704701460C
:102C2000B1F8400070470146888C70470146088D16
:102C3000704702460020138A0B400BB1012000E0D0
:102C400000207047CA430282704730B50246002018
:102C500000230024158A05EA0103958905EA010489
:102C600013B10CB1012000E0002030BDCA43028244
:102C70007047704700BFFEE700BFFEE700BFFEE7FA
:102C800000BFFEE7704770477047704710B50446B5
:102C9000FA48844208D101214015FDF717FF0021B1
:102CA0006015FDF713FF17E0F548844208D10121B4
:102CB0000015FDF70BFF00212015FDF707FF0BE0C6
:102CC000F048844208D10121C803FDF7FFFE00212E
:102CD0004FF40040FDF7FAFE10BD30B5024600206B
:102CE00000235068E84C20400D790C6844EA052424
:102CF000204350609068E54C2040D1E902542C43B9
:102D00004D7944EA450420439060D06A20F4700075
:102D10000C7C641EE4B2234340EA0350D06230BD11
:102D200000210160017141718160C1600121017464
:102D3000704721B1826842F00102826003E082683C
:102D400022F001028260704721B1826842F48072F1
:102D5000826003E0826822F480728260704710B55E
:102D60000023CBB21AB144681C43446002E04468BB
:102D70009C43446010BD816841F008018160704748
:102D8000014600208A6802F008020AB1012000E032
:102D900000207047816841F004018160704701465E
:102DA00000208A6802F004020AB1012000E000203D
:102DB000704721B1826842F4A002826003E0826819
:102DC00022F4A00282607047014600208A6802F463
:102DD00080020AB1012000E00020704710B50A46C9
:102DE00000210023416821F46041531E41EA433130
:102DF000416010BD21B1426842F40062426003E0CC
:102E0000426822F4006242607047F0B504460D4605
:102E100000200021092D11DDE068A5F10A0606EB6E
:102E20004607072606FA07F18843A5F10A0606EBCE
:102E3000460603FA06F10843E0600CE0206905EB62
:102E40004507072606FA07F1884305EB450603FA0E
:102E500006F108432061072A0FDA606B561E06EB65
:102E600086071F2606FA07F18843561E06EB8606DC
:102E700005FA06F10843606322E00D2A0FDA206BA1
:102E8000D61F06EB86071F2606FA07F18843D61FD2
:102E900006EB860605FA06F10843206310E0E06AB7
:102EA000A2F10D0606EB86071F2606FA07F18843F6
:102EB000A2F10D0606EB860605FA06F10843E0626C
:102EC000F0BD21B1826842F48012826003E0826822
:102ED00022F48012826070470146C86C80B270474D
:102EE00066484C300068704721B1426842F4806205
:102EF000426003E0426822F480624260704721B180
:102F0000426842F48052426003E0426822F48052F8
:102F1000426070470A460021816821F4E041114374
:102F20008160704721B1826842F40042826003E010
:102F3000826822F400428260704721B1826842F4C4
:102F40000212826003E0826822F4021282607047FB
:102F5000014600208A6802F400120AB1012000E054
:102F600000207047F0B504461546002000220026D8
:102F7000092911DDE068A1F10A0707EB470C0727D3
:102F800007FA0CF29043A1F10A0707EB470703FA8F
:102F900007F21043E0600CE0206901EB410C0727C9
:102FA00007FA0CF2904301EB410703FA07F21043D2
:102FB0002061A06BC0F30156EF1C06F1010CA7EBDA
:102FC0000C0707EB870C1F2707FA0CF29043EF1C46
:102FD00006F1010CA7EB0C0707EB870701FA07F2D4
:102FE0001043A063F0BD10B50A4600210023816B99
:102FF00021F44011531E41EA0351816310BD08B50D
:10300000002300930090009B0B440093009B1A60E8
:1030100008BD08B5024600200090009201F128008A
:10302000009B184400900098006880B208BD0A46D2
:1030300000214168164B19401143416070474162BD
:10304000826270470A460021416821F01F01114346
:103050004160704740B109490831096841F40001F5
:10306000064A0832116007E004490831096821F472
:103070000001024A0832116070470000002401403C
:1030800000280140003C0140FFFEF0FFFDF7F1FF8A
:10309000FFFD3FFF0246002013680B400BB10120EB
:1030A00000E000207047CA430260704770B50246D6
:1030B0000020002300240B125568CEB205EA060456
:1030C00015681D4015B10CB1012000E0002070BD55
:1030D00000220A12D3430360704700001FB501218C
:1030E0004420FDF7D9FC01210846FDF7D5FC182046
:1030F000ADF80C0003208DF80E0048208DF80F006D
:1031000003A94848FDF70CFA0120ADF80C00032094
:103110008DF80E0028208DF80F0003A94248FDF716
:10312000FFF906208DF8080000208DF809008DF8C1
:103130000A0001208DF80B0002A8FDF79CFE00217B
:103140000846FDF703FB0120009000208DF80400E5
:1031500008208DF8050001208DF806006846FEF76E
:1031600035FD09208DF8080000208DF809008DF844
:103170000A0001208DF80B0002A8FDF77CFE032158
:103180000420FDF7E3FA0820009000208DF80400E9
:103190000C208DF8050001208DF806006846FEF72A
:1031A00015FD1FBD002109E0002201E0531C9AB269
:1031B00041F638739A42F9DB4B1C99B28142F3DB3A
:1031C000704710B501211848FDF73DFA48B1642059
:1031D000FFF7E8FF01211448FDF735FAF8B10320A5
:1031E00010BD08210F48FDF72EFA48B96420FFF7FB
:1031F000D9FF08210B48FDF726FA80B90220EFE736
:1032000010210848FDF71FFA48B96420FFF7CAFFEC
:1032100010210448FDF717FA08B90120E0E7002063
:10322000DEE70000001801400008014000B587B04B
:1032300001210420FDF730FC01210803FDF72CFCDF
:10324000A020ADF8180001208DF81A0018208DF884
:103250001B0006A94548FDF763F94548FDF780FCCA
:103260004FF44040ADF804004FF48270ADF8060012
:103270000020ADF80800ADF80A00ADF80C004FF4DE
:103280000070ADF80E001820ADF810000020ADF869
:1032900012000720ADF8140001A93648FDF786FC9E
:1032A00001213448FDF727FD07B000BD10B50446E5
:1032B00000BF02212F48FDF7A2FD0028F9D02146CA
:1032C0002C48FDF749FD10BD10B5FF20FFF7EEFFBC
:1032D000FF20FFF7EBFFFF20FFF7E8FFFF20FFF7DE
:1032E000E5FF10BD10B50446217841F0E000FFF77E
:1032F000DDFF6078FFF7DAFFA078FFF7D7FFE0780F
:10330000FFF7D4FF10BD10B50020FFF7CFFF00205E
:10331000FFF7CCFF0020FFF7C9FF0020FFF7C6FF33
:1033200010BD70B505460E46FFF7EDFF002405E021
:1033300006EB8400FFF7D6FF601CC4B2AC42F7DB9B
:10334000FFF7C2FF70BD38B5044600200090FFF7BC
:10335000DAFF002504E06846FFF7C4FF681CC5B229
:10336000A542F8DBFFF7B0FF38BD000000080140C0
:10337000003800400030014010B58CB004464A4887
:1033800001904A4800886043032190FBF1F04849CE
:10339000096801EB40000290002003904348008838
:1033A000032190FBF1F0049000200590802006900E
:1033B00040000790800008900020099008030A90C0
:1033C00000200B9001A93B48FDF760FE0121394820
:1033D000FDF787FE012202213648FDF78EFE0CB074
:1033E00010BD10B586B0044601210820FDF754FB3E
:1033F00001218803FDF75DFB01210846FDF73FFB36
:103400004FF44050ADF8140003208DF8160018203A
:103410008DF8170005A92848FDF782F84FF4004001
:10342000ADF8140003208DF8160028208DF8170041
:1034300005A92148FDF774F84FF44070ADF8040079
:103440000020ADF806000320ADF808000020ADF81C
:103450000A0049F6404003900020ADF8100001A991
:1034600011480C38FDF7C0FB2046FFF785FF0E2002
:103470008DF8000001208DF8010000208DF8020079
:1034800001208DF803006846FDF7F5FC0121064890
:103490000C38FDF73CFC0122114603480C38FDF7BF
:1034A00052FC06B010BD00000C3800405200002055
:1034B0005400002044000240000C014010B56FF0A1
:1034C0000400FDF722FD374800683749B0FBF1F0F2
:1034D000364908700846007800EB4001C1EBC01087
:1034E0004FF6FF7101EAC0003149088010BD014666
:1034F0002E4A12784A434FF0E0235A6100229A6123
:103500001A46126942F001021A6100BF4FF0E02230
:10351000106900F001021AB100F48032002AF5D0DF
:103520004FF0E022126922F001024FF0E0231A610D
:1035300000229A61704701461D4A12884A434FF0A3
:10354000E0235A6100229A611A46126942F0010290
:103550001A6100BF4FF0E022106900F001021AB1B9
:1035600000F48032002AF5D04FF0E022126922F0F8
:1035700001024FF0E0231A6100229A61704770B592
:10358000044600250AE0002604E06420FFF7D3FF8C
:10359000701CC6B2142EF8DB681CC5B2A542F2DB63
:1035A00070BD00000000002000127A0028000020FA
:1035B0002A000020F74908807047F649891C0880D6
:1035C000704708B5F348801C00880090BDF80000E3
:1035D00008BDF04A1080921C1180704710B5044657
:1035E0002046FFF7E7FF0520FFF781FFFFF7E9FF20
:1035F00010BDE9480089E74908807047E549891C02
:103600000880704730B5014601F01F04C1F345132F
:10361000CA0AE50205EB43151544A8B230BD00BF48
:10362000011EA0F10102D0B2FAD1704710B50346D5
:103630000C46D948808849F24131884205D0D648A5
:10364000808845F21031884214D1D3494889FFF768
:10365000B1FF1812FFF7B1FFD8B2FFF7AEFFCE49A6
:103660008889FFF7A7FF2012FFF7A7FFE0B2FFF757
:10367000A4FFABE0C848808846F6040188421DD10B
:10368000C5488079012804D1C3480088401EC01A6B
:1036900083B2C1494889FFF78DFF1812FFF78DFFEC
:1036A000D8B2FFF78AFFBC498889FFF783FF201251
:1036B000FFF783FFE0B2FFF780FF87E0B64880881E
:1036C00041F66311884247D1B3488079A8B9B2481E
:1036D0000088401EC01A83B2AF494889FFF76AFFCD
:1036E0000020FFF76AFF0020FFF767FF1812FFF7BF
:1036F00064FFD8B2FFF761FF16E0A7494889FFF7DA
:1037000059FF1812FFF759FFD8B2FFF756FFA24929
:103710000988491EC1F30F20FFF74FFF9E49097822
:10372000491EC8B2FFF749FF9B498889FFF742FF4E
:103730002012FFF742FFE0B2FFF73FFF96494988AA
:10374000491EC1F30F20FFF738FF93498978491EBE
:10375000C8B2FFF732FF39E08F48808845F2105138
:10376000884220D18C494889FFF724FF1812FFF7BF
:1037700024FF89494989491C88B2FFF71BFFD8B249
:10378000FFF71BFF84498889FFF714FF2012FFF71A
:1037900014FF81498989491C88B2FFF70BFFE0B209
:1037A000FFF70BFF12E07C488079012804D17A48AA
:1037B0000088401EC01A83B2774948891946FFF72E
:1037C00008FF754988892146FFF703FF10BD2DE9E1
:1037D000F04105460E4600240027A0466E480088AA
:1037E000A84203DD6C484088B04202DC0020BDE8FE
:1037F000F08131462846FFF719FF6748808849F273
:103800004131884211D06448808846F604018842DC
:103810000BD06148808845F21031884205D05E485F
:10382000808841F66311884203D12E20FFF7C2FE43
:103830000DE05948808845F21051884204D14FF478
:103840003850FFF7B7FE02E02220FFF7B3FE5248E0
:10385000808849F22031884202D10220FFF7DFFE42
:10386000FFF7AFFE04464C48808841F6631188425A
:1038700001D12046BBE70220FFF7D1FEFFF7A1FEF2
:1038800004464548808849F2413188420BD042487D
:10389000808845F21031884205D03F48808845F243
:1038A000105188420AD10220FFF7B9FEFFF789FEC6
:1038B0008046E7B24FF6FF7000EA07273648808857
:1038C00049F22531884216D03348808844F2355178
:1038D000884210D030488088091F88420BD02E487B
:1038E00080884BF20551884205D02B4880884CF2E5
:1038F0000551884201D1204679E72748808849F25E
:10390000413188420BD02448808845F210318842EA
:1039100005D02148808845F21051884207D1E01235
:10392000C002B91240EA411040EAE8205FE72046B1
:10393000FFF768FE5BE700B51748808849F2413120
:10394000884211D01448808846F6040188420BD082
:103950001148808845F21031884205D00E48808891
:1039600041F66311884203D12920FFF723FE0FE0BF
:103970000948808845F21051884204D14FF4245000
:10398000FFF718FE04E040F273110720FFF721FE55
:1039900000BD0000FE07006C0801002000B5FD48D6
:1039A000808849F24131884211D0FA48808846F631
:1039B000040188420BD0F748808845F210318842D4
:1039C00005D0F448808841F66311884203D128204D
:1039D000FFF7F0FD0EE0EF48808845F21051884275
:1039E00004D14FF42050FFF7E5FD03E0002107204C
:1039F000FFF7EFFD00BD70B5044600230026E54843
:103A0000807901280BD1E348808846F6040188427A
:103A100005D0E048808841F66311884208D1DD482E
:103A20008079F0B9DB48808841F66311884218D16B
:103A3000082C15D2DFE804F00406080A0C0E101258
:103A400006240DE007240BE0042409E0052407E028
:103A5000012405E0002403E0032401E0022400BF68
:103A600000BFCC48808849F24131884217D0C9480C
:103A7000808846F60401884211D0C648808845F205
:103A8000103188420BD0C348808845F210518842DB
:103A900005D0C048808841F6631188427ED1082C49
:103AA0001CD2DFE804F00406090C0F12151800BF41
:103AB00014E043F0800311E043F040030EE043F0D4
:103AC000C0030BE043F0200308E043F0600305E08F
:103AD00043F0A00302E043F0E00300BF00BFAD48A5
:103AE000808845F21051884202D14FF4585600E0C8
:103AF0003626A848808845F2103188420DD0A54866
:103B0000808845F21051884207D0A248808841F64B
:103B10006311884201D043F008039E48808846F62E
:103B20000401884201D143F0020319463046FFF7F1
:103B300050FD9848808841F6631188421DD003F0FB
:103B4000200068B19348008892494988884214DA75
:103B50009048058840888F490880084645800CE0D9
:103B60008C4800888B494988884206DD8948058849
:103B7000408888490880084645808648808845F204
:103B80001051884254D183494889FFF713FD002022
:103B9000FFF713FD7F494989491C00E077E088B2AF
:103BA000FFF708FD0020FFF708FD7A494989891CC5
:103BB00088B2FFF7FFFC77490988491EC1F30F203F
:103BC000FFF7FBFC73494989C91C88B2FFF7F2FC77
:103BD00070490978491EC8B2FFF7EFFC6D49888922
:103BE000FFF7E8FC0020FFF7E8FC6A498989491CD7
:103BF00088B2FFF7DFFC0020FFF7DFFC6549898909
:103C0000891C88B2FFF7D6FC62494988491EC1F376
:103C10000F20FFF7D2FC5F498989C91C88B2FFF7E2
:103C2000C9FC5C498978491EC8B2FFF7C6FC55E05B
:103C300058494889FFF7BEFC0020FFF7BEFC002072
:103C4000FFF7BBFC53490988491EC1F30F20FFF75A
:103C5000B4FC50490978491EC8B2FFF7AEFC4D4983
:103C60008889FFF7A7FC0020FFF7A7FC0020FFF7DB
:103C7000A4FC48494988491EC1F30F20FFF79DFC69
:103C800044498978491EC8B2FFF797FC26E0082C02
:103C90001CD2DFE804F004070A0D0F12151843F0D8
:103CA000300313E043F0100310E043F020030DE075
:103CB00000BF0BE043F0380308E043F0280305E0C1
:103CC00043F0180302E043F0080300BF00BF0326DF
:103CD00043F4805319463046FFF77BFC70BD30B586
:103CE00004460D4629462046FFF7A0FCFFF781FC5D
:103CF000294800882949088030BD30B503460C4664
:103D000015462448808849F24131884205D021482F
:103D1000808845F21031884214D11E494889FFF746
:103D200049FC1812FFF749FCD8B2FFF746FC1949C5
:103D30008889FFF73FFC2012FFF73FFCE0B2FFF756
:103D40003CFC93E01348808845F21051884227D10B
:103D500010494889FFF72EFC1812FFF72EFC0D4979
:103D60004989491C88B2FFF725FCD8B2FFF725FC2A
:103D700008498889FFF71EFC2012FFF71EFC054941
:103D80008989491C88B2FFF715FCE0B2FFF715FCE2
:103D90006CE00000080100202C0000200008006CEE
:103DA000FC48808841F66311884228D1F94880791F
:103DB00020B9F8480088401EC01A83B2F5494889E6
:103DC000FFF7F8FB1812FFF7F8FBD8B2FFF7F5FB87
:103DD0001812FFF7F2FBD8B2FFF7EFFBED49888925
:103DE000FFF7E8FB2012FFF7E8FBE0B2FFF7E5FB87
:103DF0002012FFF7E2FBE0B2FFF7DFFB36E0E54819
:103E0000808846F6040188421DD1E2488079012865
:103E100004D1E0480088401EC01A83B2DD494889B9
:103E2000FFF7C8FB1812FFF7C8FBD8B2FFF7C5FBB6
:103E3000D8498889FFF7BEFB2012FFF7BEFBE0B22E
:103E4000FFF7BBFB12E0D3488079012804D1D148A9
:103E50000088401EC01A83B2CE4948891946FFF730
:103E6000B8FBCC4988892146FFF7B3FBC9480089D4
:103E7000C9490880881C058030BD2DE9F0470446FB
:103E8000BE20FFF797FB0520FFF797FB204608F0C1
:103E9000C7FF07464FF06632C04B08F0D5FF054616
:103EA00008F07AFF1FFA80F94846FFF786FB0120E9
:103EB000FFF783FBFF20FFF780FB0020FFF77DFB70
:103EC0000020FFF77AFBBDE8F08710B50446002C10
:103ED00066D1B0498871F02008804FF4A070488006
:103EE0000846808849F2413188420BD0A948808831
:103EF00046F60401884205D0A648808845F2103174
:103F000088421AD12C20A34908812A2048812B20DD
:103F100088810846808846F60401884205D09D487D
:103F2000808845F21031884206D14FF4A07099493B
:103F300008804FF4F0704880A1E09648808845F2F0
:103F40001051884210D14FF43050924908814FF4FB
:103F5000285048814FF42C5088814FF4F07008802D
:103F60004FF4487048808AE08A48808841F663119F
:103F700088420DD12C20874908812B2048812A2096
:103F800088814FF4F07008804FF44870488076E0E4
:103F900022208049088120204881212088816EE0EC
:103FA00001207C4988714FF4A0700880F02048807F
:103FB0000846808849F24131884205D0754880889A
:103FC00045F21031884207D12C20724908812A20FD
:103FD00048812B2088813FE06E48808846F60401A6
:103FE000884207D12C206B4908812B2048812A2048
:103FF000888131E06748808845F21051884210D1AD
:104000004FF43050634908814FF4285048814FF4F1
:104010002C5088814FF4487008804FF4F07048802D
:104020001AE05C48808841F6631188420DD12C204B
:10403000584908812A2048812B2088814FF44870F4
:1040400008804FF4F070488006E022205149088132
:1040500021204881202088814E48808846F604012E
:10406000884205D04B48808845F21031884206D1FD
:104070004FF4F070474908804FF4A070488000204A
:10408000FFF7B9FC10BD2DE9F04F86B004460D4690
:104090009046994604EB0800401E86B205EB0900E5
:1040A000401E87B23B48808849F24131884215D092
:1040B0003848808845F2103188420FD035488088D2
:1040C00046F60401884209D032488079012826D179
:1040D0003048808841F66311884220D12D494889B3
:1040E000FFF768FA2012FFF768FAE0B2FFF765FA07
:1040F0003012FFF762FAF0B2FFF75FFA25498889BC
:10410000FFF758FA2812FFF758FAE8B2FFF755FA06
:104110003812FFF752FAF8B2FFF74FFABEE01D4827
:10412000808841F6631188423AD11A480088A0EB92
:104130000800001B84B205EB0900401E1FFA80F93D
:1041400014494889FFF736FA2012FFF736FAE0B231
:10415000FFF733FA04EB0801491EC1F30F20FFF704
:104160002CFA04EB0801491EC8B2FFF726FA0949E8
:104170008889FFF71FFA2812FFF71FFAE8B2FFF746
:104180001CFA4FEA2920FFF718FA09F0FF00FFF7A1
:1041900014FA83E008010020FE07006C6666044004
:1041A000FE48808845F21051884244D1FB49488935
:1041B000FFF700FA2012FFF700FAF8494989491C75
:1041C00088B2FFF7F7F9E0B2FFF7F7F9F349498949
:1041D000891C88B2FFF7EEF93012FFF7EEF9EF49CC
:1041E0004989C91C88B2FFF7E5F9F0B2FFF7E5F994
:1041F000EA498889FFF7DEF92812FFF7DEF9E74977
:104200008989491C88B2FFF7D5F9E8B2FFF7D5F9DB
:10421000E2498989891C88B2FFF7CCF93812FFF787
:10422000CCF9DE498989C91C88B2FFF7C3F9F8B215
:10423000FFF7C3F932E0D948807901280ED1AA46A8
:10424000BB46D6480088801B401E80B20190D348F0
:104250000088001B401E80B2009003E0A246B346D7
:104260000195009750200590512004905220039012
:104270005320029051460598FFF7ABF95946049830
:10428000FFF7A7F901990398FFF7A3F9009902989E
:10429000FFF79FF929462046FFF7C8F906B0BDE8A9
:1042A000F08F70B504460026BC4805884088454319
:1042B000BA48808846F60401884216D1B74880790A
:1042C000012812D10020B54988712A2048812B206D
:1042D000888100210846FFF7A9F90120AF498871BC
:1042E0002B2048812A20888103E000210846FFF71F
:1042F0009DF9FFF77EF9002602E0A9480480761CAC
:10430000AE42FAD370BD00B59FB001210802FCF7A0
:10431000B6FB01214FF4B470FCF7BEFB0120ADF8F1
:10432000780010208DF87B0003208DF87A001EA9FC
:104330009C48FCF7F5F84CF23370ADF87800182083
:104340008DF87B0003208DF87A001EA99648FCF7B3
:10435000E7F84FF68070ADF8780018208DF87B00F4
:1043600003208DF87A001EA99048FCF7D9F841F295
:104370000100ADF8780018208DF87B0003208DF83F
:104380007A001EA98A48FCF7CBF80120089000208B
:1043900009900F200A9000200B900C900D900E9029
:1043A0000190029003200390002004900590069055
:1043B000079006200F90002010901190102012906E
:1043C0000020139015901490169017904FF4805081
:1043D0001890002019904FF480401A9000201B90F4
:1043E00008A81C9001A81D900FA8FCF723FF01212D
:1043F0000620FDF787F83220FFF79DF80020FFF731
:10440000EDF86649888008468088FF280ADB084660
:1044100080884FF6FF71884204D060488088B0F5EC
:10442000134F7CD1D320FFF7C5F8FFF7CAF85B49DB
:104430008880FFF7C6F859498880FFF7C2F85749C6
:104440008880084680884FF6FF7101EA00205349B2
:104450008880FFF7B6F85149898808434F4988801A
:104460000846808849F24131884258D0BF20FFF782
:10447000A1F8FFF7A6F849498880FFF7A2F8474955
:104480008880FFF79EF845498880FFF79AF84349EE
:104490008880084680884FF6FF7101EA00203F4976
:1044A0008880FFF78EF83D49898808433B4988801A
:1044B0000846808846F60401884230D0D420FFF7B1
:1044C00079F8FFF77EF835498880FFF77AF83349A5
:1044D0008880FFF776F831498880084680884FF653
:1044E000FF7101EA00202D498880FFF76AF82B4907
:1044F00089880843294988800846808845F2103118
:10450000884263D04FF45A40FFF754F8FFF759F848
:10451000224988804FF45B40FFF74CF800E055E0FB
:10452000FFF74FF81D498880084680884FF6FF71D5
:1045300001EA0020194988804FF45C40FFF73AF8FF
:10454000FFF73FF8154989880843144988800846D1
:104550008088B0F5004F02D145F2105088800F4896
:10456000808845F21051884230D0A120FFF722F810
:10457000FFF727F809498880FFF723F80749888063
:10458000084680884FF6FF7101EA002003498880C1
:10459000FFF717F80149898808430BE0080100205C
:1045A0000008006C000C014000140140001801409C
:1045B00000200140FE4988800846808845F26171EC
:1045C000884203D141F66310F9498880F848808811
:1045D00049F2413188427CD1CF20FEF7EBFF002029
:1045E000FEF7EBFFC120FEF7E8FF3020FEF7E5FF06
:1045F000ED20FEF7DFFF6420FEF7DFFF0320FEF76C
:10460000DCFF1220FEF7D9FF8120FEF7D6FFE8205D
:10461000FEF7D0FF8520FEF7D0FF1020FEF7CDFF7C
:104620007A20FEF7CAFFCB20FEF7C4FF3920FEF741
:10463000C4FF2C20FEF7C1FF0020FEF7BEFF342090
:10464000FEF7BBFF0220FEF7B8FFF720FEF7B2FF30
:104650002020FEF7B2FFEA20FEF7ACFF0020FEF7B5
:10466000ACFF0020FEF7A9FFC020FEF7A3FF1B2030
:10467000FEF7A3FFC120FEF79DFF0120FEF79DFF7F
:10468000C520FEF797FF3020FEF797FF3020FEF79A
:1046900094FFC720FEF78EFFB720FEF78EFF36206F
:1046A000FEF788FF4820FEF788FF3A20FEF782FFDA
:1046B0005520FEF782FFB120FEF77CFF0020FEF7B9
:1046C0007CFF1A20FEF779FFB620FEF773FF0A2061
:1046D00000E099E0FEF771FFA220FEF76EFFF220E6
:1046E000FEF768FF0020FEF768FF2620FEF762FF56
:1046F0000120FEF762FFE020FEF75CFF0F20FEF7CF
:104700005CFF2A20FEF759FF2820FEF756FF0820FD
:10471000FEF753FF0E20FEF750FF0820FEF74DFF77
:104720005420FEF74AFFA920FEF747FF4320FEF77B
:1047300044FF0A20FEF741FF0F20FEF73EFF002056
:10474000FEF73BFF0020FEF738FF0020FEF735FFA5
:104750000020FEF732FFE120FEF72CFF0020FEF7DD
:104760002CFF1520FEF729FF1720FEF726FF072054
:10477000FEF723FF1120FEF720FF0620FEF71DFFA6
:104780002B20FEF71AFF5620FEF717FF3C20FEF7FE
:1047900014FF0520FEF711FF1020FEF70EFF0F207B
:1047A000FEF70BFF3F20FEF708FF3F20FEF705FF57
:1047B0000F20FEF702FF2B20FEF7FCFE0020FEF785
:1047C000FCFE0020FEF7F9FE0120FEF7F6FE3F207A
:1047D000FEF7F3FE2A20FEF7EDFE0020FEF7EDFEC9
:1047E0000020FEF7EAFE0020FEF7E7FEEF20FEF7CE
:1047F000E4FE1120FEF7DEFE7820FEF79CFE292065
:10480000FEF7D8FE03F01AB96948808846F604011D
:1048100088427CD11120FEF7CDFE1420FEF78BFEDE
:10482000D020FEF7C7FE0720FEF7C7FE4220FEF7A6
:10483000C4FE1D20FEF7C1FED120FEF7BBFE002006
:10484000FEF7BBFE1A20FEF7B8FE0920FEF7B5FE04
:10485000D220FEF7AFFE0120FEF7AFFE2220FEF7CA
:10486000ACFEC020FEF7A6FE1020FEF7A6FE3B2001
:10487000FEF7A3FE0020FEF7A0FE0220FEF79DFE3D
:104880001120FEF79AFEC520FEF794FE0320FEF7E6
:1048900094FEC820FEF78EFE0020FEF78EFE252037
:1048A000FEF78BFE2120FEF788FE0520FEF785FE31
:1048B0000020FEF782FE0A20FEF77FFE6520FEF74D
:1048C0007CFE2520FEF779FE7720FEF776FE50204D
:1048D000FEF773FE0F20FEF770FE0020FEF76DFE60
:1048E000F820FEF767FE0120FEF767FEFE20FEF7C8
:1048F00061FE0020FEF761FE0220FEF75EFE202032
:10490000FEF758FE3620FEF755FE082000E02CE0AA
:10491000FEF753FE3A20FEF74DFE5520FEF74DFE02
:104920002B20FEF747FE0020FEF747FE0020FEF793
:1049300044FE0120FEF741FE3F20FEF73EFE2A2006
:10494000FEF738FE0020FEF738FE0020FEF735FEA9
:104950000120FEF732FEDF20FEF72FFE7820FEF763
:10496000EAFD2920FEF726FE4CE71148808845F233
:104970001031884240F07C87ED20FEF71BFE0120BD
:10498000FEF71BFEFE20FEF718FEEE20FEF712FEDD
:10499000DE20FEF712FE2120FEF70FFEF120FEF7CB
:1049A00009FE0120FEF709FEDF20FEF703FE01E00D
:1049B000080100201020FEF700FEC420FEF7FAFDDB
:1049C0008F20FEF7FAFDC620FEF7F4FD0020FEF76B
:1049D000F4FDE220FEF7F1FDE220FEF7EEFDE2201D
:1049E000FEF7EBFDBF20FEF7E5FDAA20FEF7E5FD93
:1049F000B020FEF7DFFD0D20FEF7DFFD0020FEF703
:104A0000DCFD0D20FEF7D9FD0020FEF7D6FD1120BC
:104A1000FEF7D3FD0020FEF7D0FD1920FEF7CDFDF7
:104A20000020FEF7CAFD2120FEF7C7FD0020FEF79B
:104A3000C4FD2D20FEF7C1FD0020FEF7BEFD3D2088
:104A4000FEF7BBFD0020FEF7B8FD5D20FEF7B5FDCB
:104A50000020FEF7B2FD5D20FEF7AFFD0020FEF75F
:104A6000ACFDB120FEF7A6FD8020FEF7A6FD0020DC
:104A7000FEF7A3FD8B20FEF7A0FD0020FEF79DFDB5
:104A80009620FEF79AFD0020FEF797FDB220FEF774
:104A900091FD0020FEF791FD0020FEF78EFD022023
:104AA000FEF78BFD0020FEF788FD0320FEF785FD55
:104AB0000020FEF782FDB320FEF77CFD0020FEF70C
:104AC0007CFD0020FEF779FD0020FEF776FD00203A
:104AD000FEF773FD0020FEF770FD0020FEF76DFD70
:104AE0000020FEF76AFD0020FEF767FD0020FEF7BC
:104AF00064FD0020FEF761FD0020FEF75EFD002052
:104B0000FEF75BFD0020FEF758FD0020FEF755FD87
:104B10000020FEF752FD0020FEF74FFD0020FEF7BB
:104B20004CFD0020FEF749FD0020FEF746FD002069
:104B3000FEF743FD0020FEF740FD0020FEF73DFD9F
:104B40000020FEF73AFD0020FEF737FDB420FEF707
:104B500031FD8B20FEF731FD0020FEF72EFD962063
:104B6000FEF72BFD0020FEF728FDA120FEF725FD16
:104B70000020FEF722FDB520FEF71CFD0220FEF707
:104B80001CFD0020FEF719FD0320FEF716FD002096
:104B9000FEF713FD0420FEF710FD0020FEF70DFDCB
:104BA000B620FEF707FD0020FEF707FD0020FEF708
:104BB00004FDB720FEF7FEFC0020FEF7FEFC0020FF
:104BC000FEF7FBFC3F20FEF7F8FC0020FEF7F5FCAB
:104BD0005E20FEF7F2FC0020FEF7EFFC6420FEF7FB
:104BE000ECFC0020FEF7E9FC8C20FEF7E6FC002040
:104BF000FEF7E3FCAC20FEF7E0FC0020FEF7DDFC56
:104C0000DC20FEF7DAFC0020FEF7D7FC7020FEF770
:104C1000D4FC0020FEF7D1FC9020FEF7CEFC002053
:104C2000FEF7CBFCEB20FEF7C8FC0020FEF7C5FC2E
:104C3000DC20FEF7C2FC0020FEF7BFFCB820FEF728
:104C4000B9FC0020FEF7B9FC0020FEF7B6FC0020FE
:104C5000FEF7B3FC0020FEF7B0FC0020FEF7ADFC31
:104C60000020FEF7AAFC0020FEF7A7FC0020FEF7BC
:104C7000A4FCBA20FEF79EFC2420FEF79EFC002038
:104C8000FEF79BFC0020FEF798FC0020FEF795FC49
:104C9000C120FEF78FFC2020FEF78FFC0020FEF7DE
:104CA0008CFC5420FEF789FC0020FEF786FCFF20D8
:104CB000FEF783FC0020FEF780FCC220FEF77AFCA2
:104CC0000A20FEF77AFC0020FEF777FC0420FEF7AE
:104CD00074FC0020FEF771FCC320FEF76BFC3C2047
:104CE000FEF76BFC0020FEF768FC3A20FEF765FC3F
:104CF0000020FEF762FC3920FEF75FFC0020FEF783
:104D00005CFC3720FEF759FC0020FEF756FC3C20E7
:104D1000FEF753FC0020FEF750FC3620FEF74DFC5A
:104D20000020FEF74AFC3220FEF747FC0020FEF789
:104D300044FC2F20FEF741FC0020FEF73EFC2C2017
:104D4000FEF73BFC0020FEF738FC2920FEF735FC7F
:104D50000020FEF732FC2620FEF72FFC0020FEF795
:104D60002CFC2420FEF729FC0020FEF726FC242042
:104D7000FEF723FC0020FEF720FC2320FEF71DFC9D
:104D80000020FEF71AFC3C20FEF717FC0020FEF77F
:104D900014FC3620FEF711FC0020FEF70EFC32203A
:104DA000FEF70BFC0020FEF708FC2F20FEF705FCA9
:104DB0000020FEF702FC2C20FEF7FFFB0020FEF790
:104DC000FCFB2920FEF7F9FB0020FEF7F6FB26206E
:104DD000FEF7F3FB0020FEF7F0FB2420FEF7EDFBCF
:104DE0000020FEF7EAFB2420FEF7E7FB0020FEF799
:104DF000E4FB2320FEF7E1FB0020FEF7DEFBC420EE
:104E0000FEF7D8FB6220FEF7D8FB0020FEF7D5FBAB
:104E10000520FEF7D2FB0020FEF7CFFB8420FEF733
:104E2000CCFB0020FEF7C9FBF020FEF7C6FB0020FC
:104E3000FEF7C3FB1820FEF7C0FB0020FEF7BDFB0A
:104E4000A420FEF7BAFB0020FEF7B7FB1820FEF700
:104E5000B4FB0020FEF7B1FB5020FEF7AEFB0020B4
:104E6000FEF7ABFB0C20FEF7A8FB0020FEF7A5FB2E
:104E70001720FEF7A2FB0020FEF79FFB9520FEF710
:104E80009CFB0020FEF799FBF320FEF796FB002029
:104E9000FEF793FBE620FEF790FB0020FEF78DFB6C
:104EA000C520FEF787FB3220FEF787FB0020FEF7C8
:104EB00084FB4420FEF781FB0020FEF77EFB65208B
:104EC000FEF77BFB0020FEF778FB7620FEF775FBF4
:104ED0000020FEF772FB8820FEF76FFB0020FEF734
:104EE0006CFBC620FEF766FB2020FEF766FB002069
:104EF000FEF763FB1720FEF760FB0020FEF75DFB6B
:104F00000120FEF75AFB0020FEF757FBC720FEF7F3
:104F100051FB0020FEF751FB0020FEF74EFB002066
:104F2000FEF74BFB0020FEF748FBC820FEF742FBD4
:104F30000020FEF742FB0020FEF73FFB0020FEF7BB
:104F40003CFB0020FEF739FBC920FEF733FB0020B5
:104F5000FEF733FB0020FEF730FB0020FEF72DFBB1
:104F60000020FEF72AFB0020FEF727FB0020FEF7BB
:104F700024FB0020FEF721FB0020FEF71EFB002093
:104F8000FEF71BFB0020FEF718FB0020FEF715FBC9
:104F90000020FEF712FB0020FEF70FFB0020FEF7BB
:104FA0000CFB0020FEF709FB0020FEF706FBE020CB
:104FB000FEF700FB1620FEF700FB0020FEF7FDFACF
:104FC0001C20FEF7FAFA0020FEF7F7FA2120FEF780
:104FD000F4FA0020FEF7F1FA3620FEF7EEFA002090
:104FE000FEF7EBFA4620FEF7E8FA0020FEF7E5FAB6
:104FF0005220FEF7E2FA0020FEF7DFFA6420FEF707
:10500000DCFA0020FEF7D9FA7A20FEF7D6FA002063
:10501000FEF7D3FA8B20FEF7D0FA0020FEF7CDFA88
:105020009920FEF7CAFA0020FEF7C7FAA820FEF77B
:10503000C4FA0020FEF7C1FAB920FEF7BEFA00203C
:10504000FEF7BBFAC420FEF7B8FA0020FEF7B5FA67
:10505000CA20FEF7B2FA0020FEF7AFFAD220FEF720
:10506000ACFA0020FEF7A9FAD920FEF7A6FA002034
:10507000FEF7A3FAE020FEF7A0FA0020FEF79DFA63
:10508000F320FEF79AFA0020FEF797FAE120FEF7E8
:1050900091FA1620FEF791FA0020FEF78EFA1C20F6
:1050A000FEF78BFA0020FEF788FA2220FEF785FA39
:1050B0000020FEF782FA3620FEF77FFA0020FEF786
:1050C0007CFA4520FEF779FA0020FEF776FA5220A6
:1050D000FEF773FA0020FEF770FA6420FEF76DFA0F
:1050E0000020FEF76AFA7A20FEF767FA0020FEF742
:1050F00064FA8B20FEF761FA0020FEF75EFA992031
:10510000FEF75BFA0020FEF758FAA820FEF755FAE2
:105110000020FEF752FAB920FEF74FFA0020FEF702
:105120004CFAC420FEF749FA0020FEF746FACA20DE
:10513000FEF743FA0020FEF740FAD220FEF73DFAD0
:105140000020FEF73AFAD820FEF737FA0020FEF7E3
:1051500034FAE020FEF731FA0020FEF72EFAF320B1
:10516000FEF72BFA0020FEF728FAE220FEF722FADB
:105170000520FEF722FA0020FEF71FFA0B20FEF7AB
:105180001CFA0020FEF719FA1B20FEF716FA002081
:10519000FEF713FA3420FEF710FA0020FEF70DFA9E
:1051A0004420FEF70AFA0020FEF707FA4F20FEF728
:1051B00004FA0020FEF701FA6120FEF7FEF9002054
:1051C000FEF7FBF97920FEF7F8F90020FEF7F5F974
:1051D0008820FEF7F2F90020FEF7EFF99720FEF79E
:1051E000ECF90020FEF7E9F9A620FEF7E6F9002029
:1051F000FEF7E3F9B720FEF7E0F90020FEF7DDF94E
:10520000C220FEF7DAF90020FEF7D7F9C720FEF733
:10521000D4F90020FEF7D1F9D120FEF7CEF9002015
:10522000FEF7CBF9D620FEF7C8F90020FEF7C5F946
:10523000DD20FEF7C2F90020FEF7BFF9F320FEF7EC
:10524000BCF90020FEF7B9F9E320FEF7B3F9052019
:10525000FEF7B3F90020FEF7B0F90A20FEF7ADF92A
:105260000020FEF7AAF91C20FEF7A7F90020FEF7A0
:10527000A4F93320FEF7A1F90020FEF79EF944209F
:10528000FEF79BF90020FEF798F95020FEF795F9FC
:105290000020FEF792F96220FEF78FF90020FEF75A
:1052A0008CF97820FEF789F90020FEF786F988202E
:1052B000FEF783F90020FEF780F99720FEF77DF9CD
:1052C0000020FEF77AF9A620FEF777F90020FEF716
:1052D00074F9B720FEF771F90020FEF76EF9C220CD
:1052E000FEF76BF90020FEF768F9C720FEF765F9B5
:1052F0000020FEF762F9D120FEF75FF90020FEF7EB
:105300005CF9D520FEF759F90020FEF756F9DD20AB
:10531000FEF753F90020FEF750F9F320FEF74DF9A0
:105320000020FEF74AF9E420FEF744F90120FEF7D9
:1053300044F90020FEF741F90120FEF73EF9002074
:10534000FEF73BF90220FEF738F90020FEF735F9A9
:105350002A20FEF732F90020FEF72FF93C20FEF755
:105360002CF90020FEF729F94B20FEF726F9002042
:10537000FEF723F95D20FEF720F90020FEF71DF966
:105380007420FEF71AF90020FEF717F98420FEF7C3
:1053900014F90020FEF711F99320FEF70EF9002012
:1053A000FEF70BF9A220FEF708F90020FEF705F939
:1053B000B320FEF702F90020FEF7FFF8BE20FEF74B
:1053C000FCF80020FEF7F9F8C420FEF7F6F80020FC
:1053D000FEF7F3F8CD20FEF7F0F80020FEF7EDF829
:1053E000D320FEF7EAF80020FEF7E7F8DD20FEF70D
:1053F000E4F80020FEF7E1F8F320FEF7DEF80020E5
:10540000FEF7DBF8E520FEF7D5F80020FEF7D5F82B
:105410000020FEF7D2F80020FEF7CFF80020FEF7BC
:10542000CCF80220FEF7C9F80020FEF7C6F82920C4
:10543000FEF7C3F80020FEF7C0F83C20FEF7BDF8E9
:105440000020FEF7BAF84B20FEF7B7F80020FEF771
:10545000B4F85D20FEF7B1F80020FEF7AEF8742036
:10546000FEF7ABF80020FEF7A8F88420FEF7A5F8B9
:105470000020FEF7A2F89320FEF79FF80020FEF729
:105480009CF8A220FEF799F80020FEF796F8B320CA
:10549000FEF793F80020FEF790F8BE20FEF78DF897
:1054A0000020FEF78AF8C420FEF787F80020FEF7F8
:1054B00084F8CD20FEF781F80020FEF77EF8D32097
:1054C000FEF77BF80020FEF778F8DC20FEF775F891
:1054D0000020FEF772F8F320FEF76FF80020FEF7C9
:1054E0006CF8E620FEF766F81120FEF766F800205B
:1054F000FEF763F83420FEF760F80020FEF75DF851
:105500005620FEF75AF80020FEF757F87620FEF7EF
:1055100054F80020FEF751F87720FEF74EF80020EF
:10552000FEF74BF86620FEF748F80020FEF745F836
:105530008820FEF742F80020FEF73FF89920FEF79A
:105540003CF80020FEF739F8BB20FEF736F80020C3
:10555000FEF733F89920FEF730F80020FEF72DF81B
:105560006620FEF72AF80020FEF727F85520FEF700
:1055700024F80020FEF721F85520FEF71EF8002041
:10558000FEF71BF84520FEF718F80020FEF715F887
:105590004320FEF712F80020FEF70FF84420FEF734
:1055A0000CF80020FEF709F8E720FEF703F8322098
:1055B000FEF703F80020FEF700F85520FDF7FDFF89
:1055C0000020FDF7FAFF7620FDF7F7FF0020FDF73A
:1055D000F4FF6620FDF7F1FF0020FDF7EEFF6720E6
:1055E000FDF7EBFF0020FDF7E8FF6720FDF7E5FF83
:1055F0000020FDF7E2FF8720FDF7DFFF0020FDF729
:10560000DCFF9920FDF7D9FF0020FDF7D6FFBB2076
:10561000FDF7D3FF0020FDF7D0FF9920FDF7CDFF68
:105620000020FDF7CAFF7720FDF7C7FF0020FDF738
:10563000C4FF4420FDF7C1FF0020FDF7BEFF562048
:10564000FDF7BBFF0020FDF7B8FF2320FDF7B5FFF6
:105650000020FDF7B2FF3320FDF7AFFF0020FDF77C
:10566000ACFF4520FDF7A9FF0020FDF7A6FFE820CD
:10567000FDF7A0FF0020FDF7A0FF0020FDF79DFF34
:105680009920FDF79AFF0020FDF797FF8720FDF78F
:1056900094FF0020FDF791FF8820FDF78EFF00208A
:1056A000FDF78BFF7720FDF788FF0020FDF785FFD2
:1056B0006620FDF782FF0020FDF77FFF8820FDF7C1
:1056C0007CFF0020FDF779FFAA20FDF776FF002080
:1056D000FDF773FFBB20FDF770FF0020FDF76DFFA6
:1056E0009920FDF76AFF0020FDF767FF6620FDF7B0
:1056F00064FF0020FDF761FF5520FDF75EFF0020ED
:10570000FDF75BFF5520FDF758FF0020FDF755FF23
:105710004420FDF752FF0020FDF74FFF4420FDF726
:105720004CFF0020FDF749FF5520FDF746FF002004
:10573000FDF743FFE920FDF73DFFAA20FDF73DFF00
:105740000020FDF73AFF0020FDF737FF0020FDF7AE
:1057500034FF0020FDF72EFFAA20FDF72EFFCF20FB
:10576000FDF728FF0020FDF728FF0020FDF725FFAB
:105770000020FDF722FF0020FDF71FFF0020FDF7AE
:105780001CFF0020FDF719FF0020FDF716FF002089
:10579000FDF713FF0020FDF710FF0020FDF70DFFC0
:1057A0000020FDF70AFF0020FDF707FF0020FDF7AE
:1057B00004FF0020FDF701FF0020FDF7FEFE0020A2
:1057C000FDF7FBFE0020FDF7F8FEF020FDF7F2FEEE
:1057D0000020FDF7F2FE5020FDF7EFFE0020FDF760
:1057E000ECFE0020FDF7E9FE0020FDF7E6FEF320C9
:1057F000FDF7E0FE0020FDF7E0FEF920FDF7DAFE00
:105800000620FDF7DAFE1020FDF7D7FE2920FDF770
:10581000D4FE0020FDF7D1FE3A20FDF7CBFE552047
:10582000FDF7CBFE1120FDF7C5FE6420FDF783FEDA
:105830002920FDF7BFFE3520FDF7BCFE0020FDF757
:10584000BCFE5120FDF7B6FEFF20FDF7B6FE53204B
:10585000FDF7B0FE2C20FDF7B0FE5520FDF7AAFEA7
:105860008220FDF7AAFE2C20FDF7A4FE02F0E6B888
:10587000FE48808845F2105188427DD155214FF471
:105880007040FDF7A6FEAA214FF20100FDF7A1FE30
:1058900052214FF20200FDF79CFE08214FF2030057
:1058A000FDF797FE01214FF20400FDF792FE0D2156
:1058B0004FF43040FDF78DFE0D214BF20100FDF756
:1058C00088FE0D214BF20200FDF783FE34214FF4D8
:1058D0003640FDF77EFE34214BF20160FDF779FE84
:1058E00034214BF20260FDF774FE0D214FF431407C
:1058F000FDF76FFE0D214BF20110FDF76AFE0D2141
:105900004BF20210FDF765FE34214FF43740FDF7EE
:1059100060FE34214BF20170FDF75BFE34214BF247
:105920000270FDF756FE00214FF43240FDF751FEA4
:1059300000214BF20120FDF74CFE00214BF202202A
:10594000FDF747FE24214FF43840FDF742FE2421A5
:105950004BF60100FDF73DFE24214BF60200FDF75A
:1059600038FE01214FF43F40FDF733FE0F214FF485
:105970003340FDF72EFE00E0FDE30F214BF2013036
:10598000FDF727FE0F214BF20230FDF722FE3421F6
:105990004FF43940FDF71DFE34214BF60110FDF7A1
:1059A00018FE34214BF60210FDF713FE08214FF4C8
:1059B0003540FDF70EFE08214BF20150FDF709FEC0
:1059C00008214BF20250FDF704FE03214FF4424040
:1059D000FDF7FFFD24214FF43A40FDF7FAFD2421A5
:1059E0004BF60120FDF7F5FD24214BF60220FDF7D3
:1059F000F0FD00214FF43C40FDF7EBFD78214BF624
:105A00000140FDF7E6FD00214BF60240FDF7E1FD08
:105A100000214FF43D40FDF7DCFD78214BF60150AD
:105A2000FDF7D7FD00214BF60250FDF7D2FD002116
:105A30004FF43E40FDF7CDFD64214BF60160FDF7CC
:105A4000C8FD00214FF45140FDF7C3FD33214DF255
:105A50000110FDF7BEFD00214DF20210FDF7B9FD6A
:105A600034214DF20310FDF7B4FD00214DF2041076
:105A7000FDF7AFFD3A214DF20510FDF7AAFD00211B
:105A80004DF20610FDF7A5FD4A214DF20710FDF776
:105A9000A0FD00214DF20810FDF79BFD5C214DF2A9
:105AA0000910FDF796FD00214DF20A10FDF791FD5A
:105AB00081214DF20B10FDF78CFD00214DF20C10F1
:105AC000FDF787FDA6214DF20D10FDF782FD0021A7
:105AD0004DF20E10FDF77DFDE5214DF20F10FDF7A3
