:020000040000FA
:020000000101FC
:020001000102FA
:020002000103F8
:020003000104F6
:020004000105F4
:020005000106F2
:020006000107F0
:020007000108EE
:020008000109EC
:02000900010AEA
:02000A00010BE8
:02000B00010CE6
:02000C00010DE4
:02000D00010EE2
:02000E00010FE0
:02000F000110DE
:020010000111DC
:020011000112DA
:020012000113D8
:020013000114D6
:020014000115D4
:020015000116D2
:020016000117D0
:020017000118CE
:020018000119CC
:02001900011ACA
:02001A00011BC8
:02001B00011CC6
:02001C00011DC4
:02001D00011EC2
:02001E00011FC0
:02001F000120BE
:020020000121BC
:020021000122BA
:020022000123B8
:020023000124B6
:020024000125B4
:020025000126B2
:020026000127B0
:020027000128AE
:020028000129AC
:02002900012AAA
:02002A00012BA8
:02002B00012CA6
:02002C00012DA4
:02002D00012EA2
:02002E00012FA0
:02002F0001309E
:0200300001319C
:0200310001329A
:02003200013398
:02003300013496
:02003400013594
:02003500013692
:02003600013790
:0200370001388E
:0200380001398C
:02003900013A8A
:02003A00013B88
:02003B00013C86
:02003C00013D84
:02003D00013E82
:02003E00013F80
:02003F0001407E
:0200400001417C
:0200410001427A
:02004200014378
:02004300014476
:02004400014574
:02004500014672
:02004600014770
:0200470001486E
:0200480001496C
:02004900014A6A
:02004A00014B68
:02004B00014C66
:02004C00014D64
:02004D00014E62
:02004E00014F60
:02004F0001505E
:0200500001515C
:0200510001525A
:02005200015358
:02005300015456
:02005400015554
:02005500015652
:02005600015750
:0200570001584E
:0200580001594C
:02005900015A4A
:02005A00015B48
:02005B00015C46
:02005C00015D44
:02005D00015E42
:02005E00015F40
:02005F0001603E
:0200600001613C
:0200610001623A
:02006200016338
:02006300016436
:02006400016534
:02006500016632
:02006600016730
:0200670001682E
:0200680001692C
:02006900016A2A
:02006A00016B28
:02006B00016C26
:02006C00016D24
:02006D00016E22
:02006E00016F20
:02006F0001701E
:0200700001711C
:0200710001721A
:02007200017318
:02007300017416
:02007400017514
:02007500017612
:02007600017710
:0200770001780E
:0200780001790C
:02007900017A0A
:02007A00017B08
:02007B00017C06
:02007C00017D04
:02007D00017E02
:02007E00017F00
:02007F000180FE
:020080000181FC
:020081000182FA
:020082000183F8
:020083000184F6
:020084000185F4
:020085000186F2
:020086000187F0
:020087000188EE
:020088000189EC
:02008900018AEA
:02008A00018BE8
:02008B00018CE6
:02008C00018DE4
:02008D00018EE2
:02008E00018FE0
:02008F000190DE
:020090000191DC
:020091000192DA
:020092000193D8
:020093000194D6
:020094000195D4
:020095000196D2
:020096000197D0
:020097000198CE
:020098000199CC
:02009900019ACA
:02009A00019BC8
:02009B00019CC6
:02009C00019DC4
:02009D00019EC2
:02009E00019FC0
:02009F0001A0BE
:0200A00001A1BC
:0200A10001A2BA
:0200A20001A3B8
:0200A30001A4B6
:0200A40001A5B4
:0200A50001A6B2
:0200A60001A7B0
:0200A70001A8AE
:0200A80001A9AC
:0200A90001AAAA
:0200AA0001ABA8
:0200AB0001ACA6
:0200AC0001ADA4
:0200AD0001AEA2
:0200AE0001AFA0
:0200AF0001B09E
:0200B00001B19C
:0200B10001B29A
:0200B20001B398
:0200B30001B496
:0200B40001B594
:0200B50001B692
:0200B60001B790
:0200B70001B88E
:0200B80001B98C
:0200B90001BA8A
:0200BA0001BB88
:0200BB0001BC86
:0200BC0001BD84
:0200BD0001BE82
:0200BE0001BF80
:0200BF0001C07E
:0200C00001C17C
:0200C10001C27A
:0200C20001C378
:0200C30001C476
:0200C40001C574
:0200C50001C672
:0200C60001C770
:0200C70001C86E
:0200C80001C96C
:0200C90001CA6A
:0200CA0001CB68
:0200CB0001CC66
:0200CC0001CD64
:0200CD0001CE62
:0200CE0001CF60
:0200CF0001D05E
:0200D00001D15C
:0200D10001D25A
:0200D20001D358
:0200D30001D456
:0200D40001D554
:0200D50001D652
:0200D60001D750
:0200D70001D84E
:0200D80001D94C
:0200D90001DA4A
:0200DA0001DB48
:0200DB0001DC46
:0200DC0001DD44
:0200DD0001DE42
:0200DE0001DF40
:0200DF0001E03E
:0200E00001E13C
:0200E10001E23A
:0200E20001E338
:0200E30001E436
:0200E40001E534
:0200E50001E632
:0200E60001E730
:0200E70001E82E
:0200E80001E92C
:0200E90001EA2A
:0200EA0001EB28
:0200EB0001EC26
:0200EC0001ED24
:0200ED0001EE22
:0200EE0001EF20
:0200EF0001F01E
:0200F00001F11C
:0200F10001F21A
:0200F20001F318
:0200F30001F416
:0200F40001F514
:0200F50001F612
:0200F60001F710
:0200F70001F80E
:0200F80001F90C
:0200F90001FA0A
:0200FA0001FB08
:0200FB0001FC06
:0200FC0001FD04
:0200FD0001FE02
:0200FE0001FF00
:0200FF000000FF
:020100000001FC
:00000001ff
