:020000040000FA
:020000000000FE
:020001000000FD
:020002000000FC
:020003000000FB
:020004000000FA
:020005000000F9
:020006000000F8
:020007000000F7
:020008000000F6
:020009000000F5
:02000A000000F4
:02000B000000F3
:02000C000000F2
:02000D000000F1
:02000E000000F0
:02000F000000EF
:020010000000EE
:020011000000ED
:020012000000EC
:020013000000EB
:020014000000EA
:020015000000E9
:020016000000E8
:020017000000E7
:020018000000E6
:020019000000E5
:02001A000000E4
:02001B000000E3
:02001C000000E2
:02001D000000E1
:02001E000000E0
:02001F000000DF
:020020000000DE
:020021000000DD
:020022000000DC
:020023000000DB
:020024000000DA
:020025000000D9
:020026000000D8
:020027000000D7
:020028000000D6
:020029000000D5
:02002A000000D4
:02002B000001D2
:02002C00FFFFD4
:02002D000001D0
:02002E00FFFFD2
:02002F000001CE
:02003000FFFFD0
:020031000001CC
:02003200FFFFCE
:020033000001CA
:02003400FFFFCC
:020035000001C8
:02003600FFFFCA
:020037000001C6
:02003800FFFFC8
:020039000001C4
:02003A00FFFFC6
:02003B000001C2
:02003C00FFFFC4
:02003D000001C0
:02003E00FFFFC2
:02003F000001BE
:02004000FFFFC0
:020041000001BC
:02004200FFFFBE
:020043000001BA
:02004400FFFFBC
:020045000001B8
:02004600FFFFBA
:020047000001B6
:02004800FFFFB8
:020049000001B4
:02004A00FFFFB6
:02004B000001B2
:02004C00FFFFB4
:02004D000001B0
:02004E00FFFFB2
:02004F000001AE
:02005000FFFFB0
:020051000001AC
:02005200FFFFAE
:020053000001AA
:02005400FFFFAC
:020055000001A8
:02005600FFFFAA
:020057000001A6
:02005800FFFFA8
:020059000001A4
:02005A00FFFFA6
:02005B000001A2
:02005C00FFFFA4
:02005D000001A0
:02005E00FFFFA2
:02005F0000019E
:02006000FFFFA0
:0200610000019C
:02006200FFFF9E
:0200630000019A
:02006400FFFF9C
:02006500000198
:02006600FFFF9A
:02006700000295
:02006800FFFE99
:02006900000293
:02006A00FFFE97
:02006B00000291
:02006C00FFFE95
:02006D0000028F
:02006E00FFFE93
:02006F0000028D
:02007000FFFE91
:0200710000028B
:02007200FFFE8F
:02007300000289
:02007400FFFE8D
:02007500000287
:02007600FFFE8B
:02007700000285
:02007800FFFE89
:02007900000283
:02007A00FFFE87
:02007B00000281
:02007C00FFFE85
:02007D0000027F
:02007E00FFFE83
:02007F0000027D
:020080007FFF00
:0200810000027B
:02008200FFFE7F
:02008300000279
:02008400FFFE7D
:02008500000277
:02008600FFFE7B
:02008700000275
:02008800FFFE79
:02008900000273
:02008A00FFFE77
:02008B00000271
:02008C00FFFE75
:02008D0000026F
:02008E00FFFE73
:02008F0000026D
:02009000FFFE71
:0200910000026B
:02009200FFFE6F
:02009300000269
:02009400FFFE6D
:02009500000267
:02009600FFFE6B
:02009700000265
:02009800FFFE69
:02009900000263
:02009A00FFFF66
:02009B00000162
:02009C00FFFF64
:02009D00000160
:02009E00FFFF62
:02009F0000015E
:0200A000FFFF60
:0200A10000015C
:0200A200FFFF5E
:0200A30000015A
:0200A400FFFF5C
:0200A500000158
:0200A600FFFF5A
:0200A700000156
:0200A800FFFF58
:0200A900000154
:0200AA00FFFF56
:0200AB00000152
:0200AC00FFFF54
:0200AD00000150
:0200AE00FFFF52
:0200AF0000014E
:0200B000FFFF50
:0200B10000014C
:0200B200FFFF4E
:0200B30000014A
:0200B400FFFF4C
:0200B500000148
:0200B600FFFF4A
:0200B700000146
:0200B800FFFF48
:0200B900000144
:0200BA00FFFF46
:0200BB00000142
:0200BC00FFFF44
:0200BD00000140
:0200BE00FFFF42
:0200BF0000013E
:0200C000FFFF40
:0200C10000013C
:0200C200FFFF3E
:0200C30000013A
:0200C400FFFF3C
:0200C500000138
:0200C600FFFF3A
:0200C700000136
:0200C800FFFF38
:0200C900000134
:0200CA00FFFF36
:0200CB00000132
:0200CC00FFFF34
:0200CD00000130
:0200CE00FFFF32
:0200CF0000012E
:0200D000FFFF30
:0200D10000012C
:0200D200FFFF2E
:0200D30000012A
:0200D400FFFF2C
:0200D500000128
:0200D600000028
:0200D700000027
:0200D800000026
:0200D900000025
:0200DA00000024
:0200DB00000023
:0200DC00000022
:0200DD00000021
:0200DE00000020
:0200DF0000001F
:0200E00000001E
:0200E10000001D
:0200E20000001C
:0200E30000001B
:0200E40000001A
:0200E500000019
:0200E600000018
:0200E700000017
:0200E800000016
:0200E900000015
:0200EA00000014
:0200EB00000013
:0200EC00000012
:0200ED00000011
:0200EE00000010
:0200EF0000000F
:0200F00000000E
:0200F10000000D
:0200F20000000C
:0200F30000000B
:0200F40000000A
:0200F500000009
:0200F600000008
:0200F700000007
:0200F800000006
:0200F900000005
:0200FA00000004
:0200FB00000003
:0200FC00000002
:0200FD00000001
:0200FE00000000
:0200FF000000FF
:020100000000FD
:00000001ff
